:100000000A128A11EF2F0834031083120313500DC4
:10001000510DD2005208D8005808031D102811288D
:100020001A280030D1000030D0000030CF0000305E
:10003000CE007F284E08D2004F08D3005008D400CD
:100040005108D5001F300310D50CD40CD30CD20CA2
:10005000FF3E031D23285208D6005608D700D017AC
:10006000FF30CE05FF30CF05FF30D0050030D10581
:100070009630D802D81F3D283E2858285808803A84
:10008000973E0318442845284628112801300310BC
:10009000D10CD00CCF0CCE0CFF3E031D47280130F5
:1000A000D2005208D807031D5628572846286F2823
:1000B00020305802031C5D285E286A281128013070
:1000C000D2000310CE0DCF0DD00DD10DD20B612873
:1000D0000130D8025808031D6E286F285F28570882
:1000E0000319732874287F28CE09CF09D009D109B4
:1000F000CE0A0319CF0A0319D00A0319D10A08003E
:1001000083120313AD002130A3002308A600EF29BA
:1001100025302E0603198D288E289A282E08A30034
:100120002D0884002308831380000130A3002308D6
:10013000AD07EF29AB01AC01A801200884000A1229
:100140008A1500200A128A110A128A15CA230A1275
:100150008A11031CAC28AD28ED2883120313AB01D0
:10016000AC010A30F0000030F100831203132C08B8
:10017000F3002B08F2000A128A15A7240A128A112A
:10018000710883120313AC007008AB0020088400D0
:100190000A128A1500200A128A11D03EA300FF30ED
:1001A00003180030A4002308AB070318AC0A240886
:1001B000AC070130A3002308A007200884000A121E
:1001C0008A1500200A128A110A128A15CA230A12F5
:1001D0008A110318EC28ED28B1280130831203138B
:1001E000A007FF30200784000A128A1500200A1297
:1001F0008A11AE00A300A4012408003A03190129C2
:10020000EF292308003A0319012A643A03190C293B
:100210000D3A03190C29EF292608840083130008DE
:10022000A900840A0008AA000230A3002308A60738
:10023000AA1F1B291C2925290330A3002308A80471
:10024000A909AA09A90A0319AA0AAE01AE0A2E0829
:10025000A3002307013E84000A128A1500200A1217
:100260008A11A4000A128A1500200A128A11A50018
:1002700025082A02031D3E292408290203184129C2
:10028000422943294D290130A3002308AE07053038
:100290002E06031D4C294D2927292B082C04031950
:1002A000522953295F292808033903195829592944
:1002B0005F29FF30AB070318AC0AFF30AC072C08EE
:1002C000803A803C031D66292B082E0203186929F9
:1002D0006A297629831203132E08A300A401230898
:1002E000AB022408031CAC03AC027A29831203136B
:1002F000AB01AC012B082C0403197F298029972915
:100300002030A3002D0884002308831380000130CF
:10031000A3002308AD07FF30AB070318AC0AFF307A
:10032000AC072B082C04031D96299729802928083F
:10033000033903199C299D29A8292D30A3002D08D4
:1003400084002308831380000130A3002308AD0735
:100350002E08A3002308A700E6290A30F800003081
:10036000F9002708A3002307013E84000A128A151A
:1003700000200A128A11F0000A128A1500200A12BF
:100380008A11F1002A08F3002908F2000A128A15DE
:1003900063250A128A117108FB007008FA000A121C
:1003A0008A1529250A128A117808303E8312031310
:1003B000A4002408AE002E08A3002D088400230802
:1003C000831380000130A3002308AD07FF30A30092
:1003D0002308A707270A031DEE29EF29AD290130BD
:1003E000A007FF30200784000A128A1500200A1295
:1003F0008A11A3002308AE002E08031D002A012A3B
:1004000088282D08840083138001080083120313B9
:100410003D088039C2004208CA003D08C2004207B8
:10042000C3004308CC00BC1F162A172A182A4C14F4
:100430004C0803191C2A1D2A2D2A4C0A031D212AA7
:10044000222A2A2A0030BD000030BC000030BB0048
:100450000030BA00BC17BD01352A0030BD000030A5
:10046000BC000030BB000030BA0041088039C20037
:100470004208CB004B084A0603193F2A402A412A6A
:100480004A174108C2004207C3004308CB00C01FFF
:100490004A2A4B2A4C2A4B144B080319502A512A3A
:1004A000612A4B0A031D552A562A5E2A0030C100D4
:1004B0000030C0000030BF000030BE00C017C101D6
:1004C000692A0030C1000030C0000030BF00003099
:1004D000BE004C084B0203186E2A6F2AB32A4A1F2B
:1004E000722A732A772A8030C2004208CA064C0852
:1004F000C2004208CD004B08C2004208CC004D08A3
:10050000C2004208CB003A08C2004208CD003E08B3
:10051000C2004208BA004D08C2004208BE003B08B3
:10052000C2004208CD003F08C2004208BB004D088F
:10053000C2004208BF003C08C2004208CD0040088B
:10054000C2004208BC004D08C2004208C0003D087D
:10055000C2004208CD004108C2004208BD004D085B
:10056000C2004208C100CD014B08C200C3014308CC
:10057000C5004C084202C400031CC5034508803A6C
:10058000FF0080307F02031DC72A1A304402031C7B
:10059000CA2ACB2A082B831203133D083C043B04D0
:1005A0003A04031DD42AD62A0130D72A0030C200CB
:1005B0004208CD000030BD000030BC000030BB0060
:1005C0000030BA004B08C2004208CC00102B4D1C72
:1005D000EA2AEB2AF42A4D08C2000310420C013823
:1005E000C3004308CD00F62A0310CD0C3A1CF92AAB
:1005F000FA2AFB2ACD170130C2003D0DBD0CBC0C00
:10060000BB0CBA0CC20BFD2A0130C2004208CC0759
:10061000831203134B084C02031C0F2B102BE72AE9
:100620004A1B132B142B5F2B4C08031D182B192B63
:10063000222B0030BD000030BC000030BB00003079
:10064000BA008D2C3E08BA073F0803110318013E7B
:1006500003192B2BBB07400803110318013E031994
:10066000322BBC07410803110318013E0319392B33
:10067000BD073D1C3C2B3D2B132C4D1C402B412B0F
:100680004A2B4D08C2000310420C0138C300430836
:10069000CD004C2B0310CD0C3A1C4F2B502B512B63
:1006A000CD170130C2003D0DBD0CBC0CBB0CBA0C0B
:1006B000C20B532B0130C2004208CC07132C3D085B
:1006C000803AFF004108803A7F02031D712B4008E9
:1006D0003C02031D712B3F083B02031D712B3E089A
:1006E0003A020318742B752BCD2BFF30C200FF305C
:1006F000C300FF30C400FF30C5003E08C6003F08FD
:10070000C7004008C8004108C9003A08C6023B08B3
:10071000031C3B0F8C2B8D2BC7023C08031C3C0F8A
:10072000922B932BC8023D08031C3D0F982B992B4D
:10073000C9024608C20747080318470FA02BA12B80
:10074000C30748080318480FA62BA72BC40749085E
:100750000318490AC5074508BD004408BC00430802
:10076000BB004208BA008030C2004208CA06CD0968
:10077000CD0A4D08031DBD2BBE2BDB2B0130BA0764
:10078000003003180130BB07003003180130BC07EC
:10079000003003180130BD07DB2B3E08BA023F08CA
:1007A000031C3F0FBB024008031C400FBC02410862
:1007B000031C410FBD023D083C043B043A04031DE9
:1007C000E22BE32B0F2C4D08031DE72BE82B0F2CFE
:1007D0000030BD000030BC000030BB000030BA006B
:1007E0008D2C0130C2000310BA0DBB0DBC0DBD0D28
:1007F000C20BF32BCD1FFD2BFE2BFF2B3A144D1CF0
:10080000022C032C062C0314CD0D082C0310CD0D47
:100810004C0803190C2C0D2C0F2C0130CC02BC1FE2
:10082000122C132CF12BCB01CD1F172C182C262C9E
:100830004D087F3903191D2C1E2C212CCB01CB0A0E
:10084000262C3A1C242C252C262C1E2C4B08031954
:100850002A2C2B2C5F2C0130BA07003003180130F2
:10086000BB07003003180130BC070030031801300B
:10087000BD073D1C3C2C3D2C5F2C3A08C2003B08B8
:10088000C3003C08C4003D08C5000130C600450D4A
:10089000C50CC40CC30CC20CC60B472C4508BD00CC
:1008A0004408BC004308BB004208BA004C0A0319C4
:1008B0005A2C5B2C5F2C0130C2004208CC074C0A3A
:1008C0000319632C642C692C4C08031D682C692CBB
:1008D000772C0030BD000030BC000030BB00003081
:1008E000BA004C08031D752C762C772CCA014C1CC1
:1008F0007A2C7B2C7D2CBC17812C7F30C2004208C7
:10090000BC054C08C2000310420CC3004308BD00E4
:10091000CA1F8B2C8C2C8D2CBD170800831203133F
:1009200023088039A8002808AD002308A80028075C
:10093000A9002908B300A21F9E2C9F2CA02C3314C1
:1009400033080319A42CA52CB42C330A031DA92C9D
:10095000AA2CB22C0030A3000030A2000030A1006D
:100960000030A000A217BC2C0030A3000030A20071
:100970000030A1000030A00027088039A800280816
:10098000AD062708A8002807A9002908B200A61F5D
:10099000CA2CCB2CCC2C321432080319D02CD12CDD
:1009A000E02C320A031DD52CD62CDE2C0030A700FB
:1009B0000030A6000030A5000030A400A617E82CE7
:1009C0000030A7000030A6000030A5000030A400D1
:1009D00032080319EC2CED2CF22C3308031DF12CFA
:1009E000F22CFB2C0030A3000030A2000030A1004C
:1009F0000030A000EE2F2008A8002808F0002608EC
:100A00000A128A15CC240A128A1171088312031360
:100A1000B9007008B8003808A800A901AA01AB0104
:100A20002B08B1002A08B0002908AF002808AE0042
:100A30003908A800A901AA01AB012B08B7002A08B0
:100A4000B6002908B5002808B4002108A800280825
:100A5000F00025080A128A15CC240A128A1171089E
:100A600083120313B9007008B8003808A800A90160
:100A7000AA01AB012808AE07290803110318013E9B
:100A80000319432DAF072A0803110318013E031968
:100A90004A2DB0072B0803110318013E0319512DED
:100AA000B1073908A800A901AA01AB012808B407B9
:100AB000290803110318013E03195F2DB5072A0801
:100AC00003110318013E0319662DB6072B08031105
:100AD0000318013E03196D2DB7072208A800280846
:100AE000F00024080A128A15CC240A128A1171080F
:100AF00083120313B9007008B8003808A800A901D0
:100B0000AA01AB012808AE07290803110318013E0A
:100B100003198B2DAF072A0803110318013E03198F
:100B2000922DB0072B0803110318013E0319992DCC
:100B3000B1073908A800A901AA01AB012808B40728
:100B4000290803110318013E0319A72DB5072A0828
:100B500003110318013E0319AE2DB6072B0803112C
:100B60000318013E0319B52DB7070830A80003107C
:100B7000AE0DAF0DB00DB10DA80BB72D2108A8001B
:100B80002808F00024080A128A15CC240A128A11B7
:100B9000710883120313B9007008B8003808A80060
:100BA0003908A900AA01AB012808AE0729080311DA
:100BB0000318013E0319DD2DAF072A08031103189E
:100BC000013E0319E42DB0072B0803110318013E61
:100BD0000319EB2DB1072008A8002808F00025080C
:100BE0000A128A15CC240A128A117108831203137F
:100BF000B9007008B8003808A8003908A900AA018F
:100C0000AB012808AE07290803110318013E031998
:100C10000A2EAF072A0803110318013E0319112EEB
:100C2000B0072B0803110318013E0319182EB10752
:100C30000830A8000310AE0DAF0DB00DB10DA80B1C
:100C40001A2E2008A8002808F00024080A128A1585
:100C5000CC240A128A11710883120313B900700898
:100C6000B8003808A8003908A900AA01AB01280873
:100C7000AE07290803110318013E0319402EAF07E0
:100C80002A0803110318013E0319472EB0072B0849
:100C900003110318013E03194E2EB1072108A800C5
:100CA0002808F00026080A128A15CC240A128A1194
:100CB000710883120313B9007008B8003808A8003F
:100CC0003908A900AA01AB012808B40729080311B3
:100CD0000318013E03196D2EB5072A0803110318E6
:100CE000013E0319742EB6072B0803110318013EA9
:100CF00003197B2EB7072208A8002808F000250852
:100D00000A128A15CC240A128A117108831203135D
:100D1000B9007008B8003808A8003908A900AA016D
:100D2000AB012808B407290803110318013E031971
:100D30009A2EB5072A0803110318013E0319A12EA4
:100D4000B6072B0803110318013E0319A82EB70795
:100D50002208A8002808F00026080A128A15CC24C8
:100D60000A128A11710883120313B9007008B800BF
:100D70003808A8003908A900AA01AB0108300310FF
:100D8000A80DA90DAA0DAB0DFF3E031DBF2E28080F
:100D9000B407290803110318013E0319D02EB50723
:100DA0002A0803110318013E0319D72EB6072B0892
:100DB00003110318013E0319DE2EB7072E08A80001
:100DC0002F08A9003008AA003108AB001830031022
:100DD000AB0CAA0CA90CA80CFF3E031DE72E28089B
:100DE000B407290803110318013E0319F82EB507AB
:100DF0002A0803110318013E0319FF2EB6072B081A
:100E000003110318013E0319062FB7070830A80085
:100E10000310AE0DAF0DB00DB10DA80B082F3308A8
:100E20003207A800A901A90D2808823EB8002908A8
:100E30000318013EFF3EB9003A2F0130A80003100D
:100E4000B40DB50DB60DB70DA80B1F2FB11F292F6F
:100E50002A2F2B2F34140130A8000310AE0DAF0D34
:100E6000B00DB10DA80B2D2FFF30B8070318B90A2C
:100E7000FF30B907B61F3D2F3E2F1D2FB201B11F06
:100E8000422F432F5F2FFF302E05A800FF302F0584
:100E9000A900FF303005AA007F303105AB002B08D8
:100EA0002A04290428040319562F572F5A2FB20158
:100EB000B20A5F2F341C5D2F5E2F5F2F572F320831
:100EC0000319632F642F952F0130B40700300318E6
:100ED0000130B507003003180130B60700300318A1
:100EE0000130B707371C752F762F952F3408A800CF
:100EF0003508A9003608AA003708AB000130AC005D
:100F00002B0DAB0CAA0CA90CA80CAC0B802F2B083A
:100F1000B7002A08B6002908B5002808B400013037
:100F2000B8070318B90A0030B9073908803AFF003A
:100F300080307F02031D9E2FFF303802031CA12F3B
:100F4000A22FAD2F7F3083120313B7008030B6007D
:100F50000030B5000030B400E22F831203133908CB
:100F6000803AFF0080307F02031DB82F0130380225
:100F70000318BB2FBC2FC82F003083120313B700F8
:100F80000030B6000030B5000030B400AD01E22FF3
:100F9000831203133808A8002808B300FF30B405F3
:100FA000FF30B5057F30B6050030B705331CD92FAB
:100FB000DA2FDB2FB6173308A8000310280CA9007E
:100FC0002908B7002D08A8002808B7043708A3008F
:100FD0003608A2003508A1003408A00008000A1253
:100FE0008A1103200A128A11E400DD01DE01DF010B
:100FF000E001E101E201E30183010A128A15A72D54
:1010000008308A000408840A82070034013400345E
:101010000A34003464340034E834033410342734A0
:10102000543465346D3470343A3425343334643494
:101030002A3443340034543465346D3470343A34D3
:0C1040002534333464342A344634003440
:10175A00831203138C1DB22BB32BAD2B8C110800F3
:10176A008316031311151119BB2BBC2BB82B1408A4
:10177A00080001300A128A154D240A128A151A30F5
:10178A00F700F70BC62B00000800F100F0013A3011
:10179A0071020318D12BD22BDA2B30307102031CC1
:1017AA00D72BD82BDA2BF001F00A700C0800F000C6
:1017BA0070088312031393000A128A15AD230A12C2
:1017CA008A1583160313111FEB2BEC2BEE2B01301A
:1017DA00EF2B0230080083160313061486145030C8
:1017EA009400283083120313940083160313910183
:1017FA00133093008C15831203138C110800F20026
:10180A004E300A128A151A240A128A15720883128D
:10181A00031364040A128A15DC230A128A150A12AF
:10182A008A15B5230A128A150800F10083160313D4
:10183A0011141118212C222C1E2C831203138C1123
:10184A008316031394192A2C2B2C2C2C322C710856
:10185A000A128A15DC230A128A150800F400831278
:10186A0003136108F3007308F404740804380A12B5
:10187A008A1504240A128A157408FB390A128A1571
:10188A0004240A128A152130F300F30B4A2C0800AB
:10189A00F60083120313E1017608F0390A128A1559
:1018AA0033240A128A157608F50003300310F50D61
:1018BA00FF3E031D5B2C0310750DF0390A128A15C1
:1018CA0033240A128A150800F60083120313E10171
:1018DA00E10A7608F0390A128A1533240A128A159F
:1018EA007608F50003300310F50DFF3E031D782C32
:1018FA000310750DF0390A128A1533240A128A1553
:10190A000800FA00F801F9019B2C78087A07F70019
:10191A007708840000080A128A1569240A128A15AF
:10192A000130F8070318F90A0030F90778087A072E
:10193A00F7007708840083130008031DA52CA62C42
:10194A008A2C0800F401F501701CAC2CAD2CB32CC8
:10195A007208F4070318F50A7308F5070130031033
:10196A00F20DF30DFF3E031DB42C01300310F10CF0
:10197A00F00CFF3E031DBB2C70087104031DC62C1E
:10198A00C72CA92C7508F1007408F0000800F800AB
:10199A00F401F5017008F200F3017208F600730809
:1019AA00F700781CD92CDA2CE02C7608F4070318F7
:1019BA00F50A7708F50701300310F60DF70DFF3E1B
:1019CA00031DE12C0310F80C7808031DED2CEE2CF6
:1019DA00D62C7508F1007408F0000800FA00152DDD
:1019EA007708BF3E0A128A154D240A128A15282D35
:1019FA007708933E0A128A154D240A128A15282D51
:101A0A007708D33E0A128A154D240A128A15282D00
:101A1A0077087F3E0A128A154D240A128A15282D44
:101A2A007A08F800F9017908003A03191D2D0D2DDD
:101A3A007808023A0319F52C013A0319FD2C073AE2
:101A4A000319052D0D2D08007808790403192E2D88
:101A5A002F2D5E2DFD01FD0A3D2D01300310F80DDD
:101A6A00F90DFF3E031D332D0130FC007C08FD07F4
:101A7A00F91F402D412D322D79087B02031D472D78
:101A8A0078087A02031C4A2D4B2D512D7808FA0248
:101A9A007908031CFB03FB0201300310F90CF80C54
:101AAA00FF3E031D522D0130FD02031D5D2D5E2DEB
:101ABA00412D7B08F9007A08F8000800F501F601C3
:101ACA007008710403196A2D6B2DA22DF701F70A0C
:101ADA00792D01300310F00DF10DFF3E031D6F2D1E
:101AEA000130F4007408F707F11F7C2D7D2D6E2D4F
:101AFA0001300310F50DF60DFF3E031D7E2D710812
:101B0A007302031D8A2D70087202031C8D2D8E2DFF
:101B1A00952D7008F2027108031CF303F302751481
:101B2A0001300310F10CF00CFF3E031D962D01301D
:101B3A00F702031DA12DA22D7D2D7608F10075084F
:101B4A00F0000800831603138601FF308500831214
:101B5A0003138501860183160317880189018815F5
:101B6A00C030831203139F041F08C3390C389F0027
:101B7A00831603139F121F129F17831203130C134A
:101B8A00831603130C17831203131F140A128A15E0
:101B9A00F0230A128A150A128A15BF260A128A1512
:101BAA000A128A15BE230A128A151A3083120313DF
:101BBA00DC00F730DB00DB0BE02DDC0BE02DE52D44
:101BCA000A128A1546260A128A150A128A15F32556
:101BDA000A128A15E52D0A128A1100280B3083127F
:101BEA000313AF002F08A0006008A2005F08A1003D
:101BFA0032300A128A1180200A128A15163083128C
:101C0A000313AF002F08A0006008A2005F08A1001C
:101C1A0042300A128A1180200A128A150A128A157B
:101C2A00BE230A128A151A3083120313B000F73042
:101C3A00AF00AF0B1E2EB00B1E2E232E32300A120F
:101C4A008A1586240A128A15F70102300A128A15A1
:101C5A00F3240A128A1542300A128A1586240A12B5
:101C6A008A15023083120313B1000430B000B93070
:101C7A00AF00AF0B3E2EB00B3E2EB10B3E2E452EC3
:101C8A000800831203139F149F184C2E4D2E492EC1
:101C9A00E201E3011E08D900DA015908E2005A08F4
:101CAA00E3006208DA00D9015908E2005A08E300A1
:101CBA006208831603131E0483120313D9006308F0
:101CCA00DA005908E2005A08E3000C136208F0002F
:101CDA006308F100F201F30100300A128A1546275F
:101CEA000A128A15730883120313A7007208A60042
:101CFA007108A5007008A4003E30A3003430A20089
:101D0A000030A1000030A0000A128A118E240A12A3
:101D1A008A15831203132308C1002208C000210870
:101D2A00BF002008BE00C230BD005C30BC000030DD
:101D3A00BB000030BA000A128A1106220A128A155A
:101D4A00831203133D08D1003C08D0003B08CF00A2
:101D5A003A08CE000A128A1104200A128A1583123E
:101D6A0003134F08E0004E08DF000130DD000030A9
:101D7A00DE00080000300A128A1504240A128A15A5
:101D8A004E30F800EB30F700F70BC92EF80BC92ECE
:101D9A0003300A128A154D240A128A150D30F800EA
:101DAA00FB30F700F70BD72EF80BD72EDC2E0330BB
:101DBA000A128A154D240A128A150D30F800FB30D2
:101DCA00F700F70BE62EF80BE62EEB2E03300A127D
:101DDA008A154D240A128A150D30F800FB30F700D7
:101DEA00F70BF52EF80BF52EFA2E02300A128A1589
:101DFA004D240A128A150D30F800FB30F700F70B54
:101E0A00042FF80B042F092F28300A128A154D24A3
:101E1A000A128A158230F800DD30F700F70B132F0B
:101E2A00F80B132F182F0C300A128A154D240A1298
:101E3A008A158230F800DD30F700F70B222FF80BF5
:101E4A00222F272F01300A128A154D240A128A15C9
:101E5A008230F800DD30F700F70B312FF80B312F05
:101E6A00362F06300A128A154D240A128A15823034
:101E7A00F800DD30F700F70B402FF80B402F452F05
:101E8A000800F800780803194B2F4C2F602FF31F16
:101E9A004F2F502F602F7009FA007109FB00720949
:101EAA00FC007309FD00FA0A0319FB0A0319FC0A6C
:101EBA000319FD0A682F7308FD007208FC007108F7
:101ECA00FB007008FA007308720471047004031DA1
:101EDA006F2F702F792F0030F3000030F20000309E
:101EEA00F1000030F000FF2F9630F4007408F9007A
:101EFA008B2F0130F4007408F90701300310FD0C30
:101F0A00FC0CFB0CFA0CFF3E031D832FFE307D05F3
:101F1A00031D902F912F7E2FAD2F0130F4007408EE
:101F2A00F9070130FA07003003180130FB070030C7
:101F3A0003180130FC07003003180130FD07013097
:101F4A000310FD0CFC0CFB0CFA0CFF3E031DA52F25
:101F5A00FF307D05031DB22FB32F922FBF2F013003
:101F6A00F9020130F4000310FA0DFB0DFC0DFD0D12
:101F7A00F40BB82FFC1BC22FC32FC92F02307902D2
:101F8A000318C82FC92FB42F7918CC2FCD2FD52FCE
:101F9A00FF30FA05FF30FB057F30FC05FF30FD05F9
:101FAA000310F90C7908F400F501F601F70118306D
:101FBA000310F40DF50DF60DF70DFF3E031DDD2F91
:101FCA007408FA047508FB047608FC047708FD0413
:101FDA0078080319F12FF22FF72FF31FF52FF62F99
:101FEA00F72FFD177D08F3007C08F2007B08F1004B
:061FFA007A08F000080067
:08400000FF3FFF3FFF3FFF3FC0
:04400E00D22FFF3F6F
:00000001FF
