:100000000A128A11BF2F0534063483160313911682
:100010001116111A0C280D2809280800F501F601FF
:10002000700871040319152816284D28F701F70ADE
:10003000242801300310F00DF10DFF3E031D1A2896
:100040000130F4007408F707F11F27282828192821
:1000500001300310F50DF60DFF3E031D2928710830
:100060007302031D352870087202031C38283928D2
:1000700040287008F2027108031CF303F3027514A0
:1000800001300310F10CF00CFF3E031D412801303C
:10009000F702031D4C284D2828287608F100750822
:1000A000F0000800233083120313A5002508AC00DC
:1000B000F42A2530340603195E285F286F28340897
:1000C000A500200884008317211C831325088000C5
:1000D0000130A0070318A10A0030A107F42AB201D9
:1000E000B301AF01220884000A128A150A200A12FD
:1000F0008A110A168A11EE220A128A11031C81281B
:100100008228542983120313B201B3010A30F0008C
:100110000030F100831203133308F3003208F200B9
:100120000A168A11D6230A128A1171088312031340
:10013000B3007008B200220884000A128A150A204F
:100140000A128A11D03EA500FF3003180030A60025
:100150002508B2070318B30A2608B3070130A50023
:100160002508A207220884000A128A150A200A120A
:100170008A110A168A11EE220A128A110318C1285E
:10018000C22886285429AF1779292C0884008313A4
:100190000008AA00840A00088403AB000230A5000E
:1001A0002508AC072A082B04031DD728D828DC28EB
:1001B0007930AA008030AB00AD01AE01E5280130F6
:1001C000AD070318AE0A0030AE072D082A078400D9
:1001D0002B0803182B0AFF000A128A1500200A12A6
:1001E0008A11003A031DF528F628DF2833082E026D
:1001F000031DFC2832082D020318FF2800290729B7
:100200002D08B2022E08031CB303B3021929B20150
:10021000B30119292030A500200884008317211C70
:100220008313250880000130A0070318A10A0030BD
:10023000A107FF30B2070318B30AFF30B307320A31
:10024000031D2629330A031D262927290A294529A2
:100250002B08FF002A0884000A128A1500200A12BF
:100260008A11A500200884008317211C8313250808
:1002700080000130AA070318AB0A0030AB07013039
:10028000A0070318A10A0030A1070130AD02003019
:10029000031CAE03AE022D0A031D52292E0A031DB4
:1002A000522953292829F42A013083120313A20763
:1002B000FF30220784000A128A150A200A128A11C6
:1002C000B400A500A6012608003A03196829F42AFB
:1002D0002508003A0319062B643A031979290D3AC7
:1002E000031979291A3A0319C5280B3A0319C328A7
:1002F000F42AAF1B7C297D2997292C0884008313BD
:100300000008B000840A0008B1000230A5002508EA
:10031000AC07B11F8C298D29F6290330A5002508CB
:10032000AF04B009B109B00A0319B10AF6292C08C3
:10033000840083130008B000840A0008B100023072
:10034000A5002508AC07F629B401B40A3408A500B5
:100350002507013E84000A128A150A200A128A1112
:10036000A6000A128A150A200A128A11A700270875
:100370003102031DBD29260830020318C029C129F6
:10038000C229072A0130A5002508B4070530340624
:10039000031DCB29CC29A629072AB401B40A3408A5
:1003A000A50025070B3E84000A128A150A200A12AE
:1003B0008A11A6000A128A150A200A128A11A700B9
:1003C00027083102031DE629260830020318E9290F
:1003D000EA29EB29072A0130A5002508B4070430D3
:1003E0003406031DF429F529CF29072A2F0880395F
:1003F000A500A6012608003A0319FF29072A2508A7
:10040000003A0319A429803A0319CD29072A320892
:10041000330403190C2A0D2A192A2F08033903194A
:10042000122A132A192AFF30B2070318B30AFF3021
:10043000B3073308803A803C031D202A3208340277
:100440000318232A242A302A831203133408A50010
:10045000A6012508B2022608031CB303B302342AFE
:1004600083120313B201B301320833040319392A8A
:100470003A2A552A2030A500200884008317211C21
:100480008313250880000130A0070318A10A00305B
:10049000A107FF30B2070318B30AFF30B3073208D1
:1004A0003304031D542A552A3A2A2F080339031905
:1004B0005A2A5B2A6A2A2D30A50020088400831757
:1004C000211C8313250880000130A0070318A10A0E
:1004D0000030A1073408A5002508A900EB2A0A303E
:1004E000F8000030F9002908A5002507013E840026
:1004F0000A128A150A200A128A11F0000A128A15B5
:100500000A200A128A11F1003108F3003008F200C3
:100510000A128A110E200A128A117108FB00700853
:10052000FA000A168A1100250A128A117808303E4C
:1005300083120313A6002608B400DC2A2908A500AC
:1005400025070B3E84000A128A150A200A128A1116
:10055000F0000A128A150A200A128A11F1003108E5
:10056000F3003008F2000A128A110E200A128A11D2
:1005700070080F3983120313A6002608A800280864
:10058000133E84000A128A150A200A128A11A50055
:100590002508B400DC2A2F088039A500A60126080A
:1005A000003A0319D42ADC2A2508003A03196F2AD5
:1005B000803A03199E2ADC2A3408A500200884000A
:1005C0008317211C8313250880000130A00703181E
:1005D000A10A0030A107FF30A5002508A907290AB4
:1005E000031DF32AF42ACB2A0130A207FF30220789
:1005F00084000A128A150A200A128A11A500250809
:10060000B4003408031D052B062B5928200884004C
:100610008317211C831380010800831603138601AE
:10062000870183160317880189013030831603136D
:10063000860030308312031386008316031389016A
:1006400083120313971517153F30970595016530F1
:100650008316031392008730831203139205121539
:10066000FC3092058B170B17831603131D150A1602
:100670008A1127230A128A110A168A11E5260A12FC
:100680008A110A168A11D1220A128A111A3083128B
:100690000313E000F730DF00DF0B4C2BE00B4C2B9B
:1006A000512B303083120313DF005F08F200F30197
:1006B000F30A6030E0006008F40000300A168A1186
:1006C00047240A128A11223083120313DF005F08C5
:1006D000F2000430E0006008F3002030E10061081F
:1006E000F40003300A168A1171240A128A11831643
:1006F0000313E401E5010A168A11D1220A128A11B4
:100700008316031364086504031D872B882BCC2BE9
:10071000A03083120313A0000030A100AA30DF0034
:100720005F08A2002430A3008030A4000A128A11BE
:1007300052200A128A1183120313A001A030A100D3
:100740000030A20000300A168A119C240A128A1175
:10075000023083120313E1000430E000B930DF00FF
:10076000DF0BB02BE00BB02BE10BB02BB72B8312C0
:100770000313861ABC2BBD2BA12F861EC02BC12BA9
:10078000BD2B831603136408013EE40065080318BB
:10079000013E003EE500A12F64036504031DD12B3B
:1007A000D22BE52D00300A168A113A250A128A1139
:1007B0000A168A11BF220A128A1183160313661FB2
:1007C000E22BE32B812CE61EE62BE72BF82B0D30DA
:1007D00083120313DF005F08A000A730A100803060
:1007E000A20001300A168A119C240A128A11082CD0
:1007F0000D3083120313DF005F08A000A430A100B6
:100800008030A20001300A168A119C240A128A1133
:100810001F30831603136605E60000306705E70006
:10082000C83083120313A0000130A1008030DF0024
:100830005F08A200831603136B0883120313A4003E
:10084000831603136A0883120313A3000A128A1182
:1008500052200A128A11BE3083120313A000013005
:10086000A1007530DF005F08A2008316031369083A
:1008700083120313A400831603136808831203135F
:10088000A3000A128A1152200A128A11B43083126C
:100890000313A0000130A1007130DF005F08A20047
:1008A00083160313670883120313A400831603132C
:1008B000660883120313A3000A128A1152200A1237
:1008C0008A1183120313A001B430A1000130A200E9
:1008D00000300A168A119C240A128A11BE30F700D1
:1008E0000130F8000A168A1178250A128A11C830D8
:1008F000F7000130F8000A168A1178250A128A11C9
:10090000E62C3F306605E60000306705E700C8309A
:1009100083120313A0000130A1008030DF005F08C4
:10092000A200831603136B0883120313A40083161B
:1009300003136A0883120313A3000A128A115220B8
:100940000A128A11BE3083120313A0000130A100E5
:100950007530DF005F08A200831603136908831255
:100960000313A40083160313680883120313A30060
:100970000A128A1152200A128A11B4308312031308
:10098000A0000130A1007130DF005F08A2008316D3
:100990000313670883120313A40083160313660866
:1009A00083120313A3000A128A1152200A128A1119
:1009B00083120313A001B430A1000130A200003063
:1009C0000A168A119C240A128A116E2C03300A1608
:1009D0008A11BA250A128A110A168A11BF220A122E
:1009E0008A11AA3083120313A0000130A1006930DC
:1009F000DF005F08A2006308A4006208A3000A12D7
:100A00008A1152200A128A11A03083120313A00007
:100A10000130A1006D30DF005F08A20083160317CC
:100A2000130883120313A4008316031712088312FA
:100A30000313A3000A128A1152200A128A11963057
:100A400083120313A0000130A1008030DF005F0893
:100A5000A20083160317110883120313A400831640
:100A60000317100883120313A3000A128A115220DD
:100A70000A128A1183120313A001AA30A1000130C7
:100A8000A20002300A168A119C240A128A11A03090
:100A9000F7000130F8000A168A1178250A128A1127
:100AA0009630F7000130F8000A168A1178250A12EC
:100AB0008A11AA2D9430F7008030F8000A168A11A6
:100AC00078250A128A11CF2D9030F7008030F80077
:100AD0000A168A1178250A128A11CF2D8830F7005C
:100AE0008030F8000A168A1178250A128A11CF2D53
:100AF0008430F7008030F8000A168A1178250A122F
:100B00008A11CF2D9C30F7008030F8000A168A1128
:100B100078250A128A11CF2D8C30F7008030F8002A
:100B20000A168A1178250A128A11CF2D9830F700FB
:100B30008030F8000A168A1178250A128A11CF2D02
:100B4000A030F7008030F8000A168A1178250A12C2
:100B50008A11CF2D831203136408D23E84008317B9
:100B60000008DF00E0016008003A0319B82DA02D4D
:100B70005F08463A03198C2D0B3A0319642D1E3A6F
:100B800003195A2D073A03196E2D033A0319782DCC
:100B9000243A0319962D073A0319822DA02D1A30F5
:100BA00083120313E000F730DF00DF0BD52DE00BDD
:100BB000D52DDA2D83120313861ADF2DE02DA12FF8
:100BC000861EE32DE42DE02DC12B02306406650462
:100BD000031DEB2DEC2D1F2E831603178815C03037
:100BE000831203139F041F08C3390C389F00831618
:100BF00003139F121F129F17831203130C138316E4
:100C000003130C17831203131F140A128A15C3202F
:100C10000A128A110A168A116C270A128A110A16F8
:100C20008A110B260A128A1183120313861A192EAF
:100C30001A2EA12F861E1D2E1E2E1A2EC12B0330FA
:100C400064066504031D252E262EE32E8316031746
:100C50000816C030831203139F041F08C3391038CD
:100C60009F00831603139F121F129F1783120313F3
:100C70000C13831603130C17831203131F149F14F2
:100C800083160313E201E30183129F18482E492EB5
:100C9000442E83160313E201E301831203131E089B
:100CA000DF00E0015F0883160313E20083120313E1
:100CB000600883160313E300620883120313E00045
:100CC000DF015F0883160313E20083120313600839
:100CD00083160313E30062081E0483120313DF006C
:100CE00083160313630883120313E0005F0883165F
:100CF0000313E20083120313600883160313E30057
:100D0000831203130C130A30F0000030F100831635
:100D100003136308F3006208F2000A128A110E201E
:100D20000A128A117008831203139500B030A000D4
:100D30000030A1003530DF005F08A20083160313E6
:100D4000630883120313A40083160313620883123B
:100D50000313A3000A128A1152200A128A11831265
:100D60000313A001B030A1000030A20000300A1629
:100D70008A119C240A128A11023083120313E100A3
:100D80000430E000B930DF00DF0BC42EE00BC42ECE
:100D9000E10BC42ECB2E83120313861AD02ED12E34
:100DA000A12F861ED42ED52ED12E831603136408B0
:100DB000013EE40065080318013E003EE500831291
:100DC00003139501A12F043064066504031DE92E69
:100DD000EA2EA12F00300A168A113A250A128A112A
:100DE0000A168A11BF220A128A1183120313660897
:100DF0006704031DFC2EFD2E092F831603136B08B9
:100E0000ED006A08EC00013083120313E6000030A5
:100E1000E700831603136A086C02F0006B08031CDA
:100E20006B0A6D02F1000A168A11DD220A128A117C
:100E3000710883160313E1007008E00000306102BE
:100E4000073003196002031C262F272F2D2F063091
:100E5000E0020030031CE103E102003061020B30CC
:100E600003196002031C352F362F6E2FC0308312FA
:100E70000313A0000030A100AA30DF005F08A20029
:100E80005630A3008030A4000A128A1152200A12A0
:100E90008A1183120313A001C030A1000030A20008
:100EA00000300A168A119C240A128A111930831202
:100EB000031395000B3083120313E1002630E0008A
:100EC0005D30DF00DF0B622FE00B622FE10B622F42
:100ED000831203139501E601E701962FD0308312A8
:100EE0000313A0000030A1006030DF005F08A20003
:100EF00083160313610883120313A40083160313DC
:100F0000600883120313A3000A128A1152200A12E6
:100F10008A1183120313A001D030A1000030A20077
:100F200000300A168A119C240A128A1183120313B4
:100F3000861A9B2F9C2FA12F861E9F2FA02F9C2FA0
:100F4000C12B1A3083120313E000F730DF00DF0BF0
:100F5000A72FE00BA72FAC2F831603136508803A49
:100F6000FF0080307F02031DB72F05306402031C91
:100F7000BA2FBB2F7B2B772B0A128A1100288317DD
:100F8000D930FD000830FE00BC30FF00D2308400B4
:100F90000A168A1104230A128A11831603130A12ED
:100FA0008A1103200A128A11EE000A128A11042003
:100FB0000A128A11EF00831203130A168A11AE2255
:100FC0000A128A11EF0090308400D2300A168A117A
:100FD000B7220A128A118313E6308400EE300A1613
:100FE0008A11B7220A128A11623084006F300A1601
:100FF0008A11B7220A128A1183010A128A110D2B53
:10100000FF1B0A2883137F1883170008840A03191B
:10101000FF0A080008308A000408840A82070034A6
:10102000013400340A34003464340034E8340334C6
:1010300010342734013400341034003400340134C7
:1010400000341034303431343234333434343534C1
:101050003634373438343934613462346334643488
:101060006534663400345034723465347334733408
:101070002034523442343534203432342034533422
:1010800074347234743400345334703465346134DD
:101090006B34653472343A34253464340034543457
:1010A00065346D3470343A342534333464342A343E
:1010B00043340034543465346D3470343A34253458
:1010C000333464342A3446340034523449344E3490
:1010D00047342034523449344E3447340034413498
:1010E0006C34613472346D343A34253464340034F1
:1010F000433461346C343A34253478342D3400343C
:10110000543469346D343A34253478343A34003404
:1011100028346E3475346C346C34293400342534FE
:101120007834203400345734653464340034543413
:1011300075346534003446347234693400344D34C7
:101140006F346E340034533475346E340034533499
:1011500061347434003454346834753400344934A0
:101160006E347634003441344D34003450344D34D0
:10117000003425347334003453344D3454345734EC
:10118000743446347334831203139F149F18C92890
:10119000CA28C628ED01EE011E08D900DA01590857
:1011A000ED005A08EE006D08DA00D9015908ED008B
:1011B0005A08EE006D08831603131E0483120313EE
:1011C000D9006E08DA005908ED005A08EE000C1339
:1011D0006D08F0006E08F100F201F30100300A1210
:1011E0008A155D210A128A15730883120313A7005A
:1011F0007208A6007108A5007008A4003E30A30084
:101200003430A2000030A1000030A0000A128A157C
:101210009F240A128A15831203132308C10022088F
:10122000C0002108BF002008BE00C230BD005C30F5
:10123000BC000030BB000030BA000A128A15172229
:101240000A128A15831203133D08DE003C08DD00F4
:101250003B08DC003A08DB005E08C1005D08C00006
:101260005C08BF005B08BE004230BD000C30BC0013
:101270000030BB000030BA000A128A1517220A1289
:101280008A15831203133D08D1003C08D0003B08A7
:10129000CF003A08CE000A168A1169260A128A156A
:1012A000831203134F08EB004E08EA000130831647
:1012B00003179400003095000800F800780803191F
:1012C000622963297729F31F66296729772970091D
:1012D000FA007109FB007209FC007309FD00FA0AAB
:1012E0000319FB0A0319FC0A0319FD0A7F29730875
:1012F000FD007208FC007108FB007008FA0073081A
:10130000720471047004031D862987299029003016
:10131000F3000030F2000030F1000030F000162A37
:101320009630F4007408F900A2290130F400740822
:10133000F90701300310FD0CFC0CFB0CFA0CFF3E0E
:10134000031D9A29FE307D05031DA729A82995298B
:10135000C4290130F4007408F9070130FA0700309D
:1013600003180130FB07003003180130FC07003080
:1013700003180130FD0701300310FD0CFC0CFB0CC1
:10138000FA0CFF3E031DBC29FF307D05031DC92952
:10139000CA29A929D6290130F9020130F400031025
:1013A000FA0DFB0DFC0DFD0DF40BCF29FC1BD9290B
:1013B000DA29E029023079020318DF29E029CB2954
:1013C0007918E329E429EC29FF30FA05FF30FB0501
:1013D0007F30FC05FF30FD050310F90C7908F4009F
:1013E000F501F601F70118300310F40DF50DF60DB7
:1013F000F70DFF3E031DF4297408FA047508FB0479
:101400007608FC047708FD0478080319082A092ADD
:101410000E2AF31F0C2A0D2A0E2AFD177D08F30051
:101420007C08F2007B08F1007A08F00008008312C3
:1014300003133D088039C2004208CA003D08C200BB
:101440004207C3004308CC00BC1F272A282A292AA8
:101450004C144C0803192D2A2E2A3E2A4C0A031D2F
:10146000322A332A3B2A0030BD000030BC00003055
:10147000BB000030BA00BC17BD01462A0030BD00D9
:101480000030BC000030BB000030BA004108803999
:10149000C2004208CB004B084A060319502A512AC1
:1014A000522A4A174108C2004207C3004308CB0032
:1014B000C01F5B2A5C2A5D2A4B144B080319612A62
:1014C000622A722A4B0A031D662A672A6F2A003095
:1014D000C1000030C0000030BF000030BE00C017A7
:1014E000C1017A2A0030C1000030C0000030BF00C6
:1014F0000030BE004C084B0203187F2A802AC42A01
:101500004A1F832A842A882A8030C2004208CA06D9
:101510004C08C2004208CD004B08C2004208CC0073
:101520004D08C2004208CB003A08C2004208CD0074
:101530003E08C2004208BA004D08C2004208BE0080
:101540003B08C2004208CD003F08C2004208BB0071
:101550004D08C2004208BF003C08C2004208CD004E
:101560004008C2004208BC004D08C2004208C0004A
:101570003D08C2004208CD004108C2004208BD003B
:101580004D08C2004208C100CD014B08C200C30192
:101590004308C5004C084202C400031CC5034508AB
:1015A000803AFF0080307F02031DD82A1A3044029F
:1015B000031CDB2ADC2A192B831203133D083C048D
:1015C0003B043A04031DE52AE72A0130E82A0030EB
:1015D000C2004208CD000030BD000030BC00003029
:1015E000BB000030BA004B08C2004208CC00212BDF
:1015F0004D1CFB2AFC2A052B4D08C2000310420C8F
:101600000138C3004308CD00072B0310CD0C3A1C52
:101610000A2B0B2B0C2BCD170130C2003D0DBD0C3E
:10162000BC0CBB0CBA0CC20B0E2B0130C200420822
:10163000CC07831203134B084C02031C202B212BD5
:10164000F82A4A1B242B252B702B4C08031D292B11
:101650002A2B332B0030BD000030BC000030BB0013
:101660000030BA009E2C3E08BA073F080311031849
:10167000013E03193C2BBB07400803110318013E30
:101680000319432BBC07410803110318013E03193A
:101690004A2BBD073D1C4D2B4E2B242C4D1C512B92
:1016A000522B5B2B4D08C2000310420C0138C300C3
:1016B0004308CD005D2B0310CD0C3A1C602B612B31
:1016C000622BCD170130C2003D0DBD0CBC0CBB0C14
:1016D000BA0CC20B642B0130C2004208CC07242C88
:1016E0003D08803AFF004108803A7F02031D822BAB
:1016F00040083C02031D822B3F083B02031D822B46
:101700003E083A020318852B862BDE2BFF30C200E1
:10171000FF30C300FF30C400FF30C5003E08C600E4
:101720003F08C7004008C8004108C9003A08C6027F
:101730003B08031C3B0F9D2B9E2BC7023C08031C40
:101740003C0FA32BA42BC8023D08031C3D0FA92B63
:10175000AA2BC9024608C20747080318470FB12B36
:10176000B22BC30748080318480FB72BB82BC40780
:1017700049080318490AC5074508BD004408BC00CC
:101780004308BB004208BA008030C2004208CA06C3
:10179000CD09CD0A4D08031DCE2BCF2BEC2B0130EC
:1017A000BA07003003180130BB07003003180130BE
:1017B000BC07003003180130BD07EC2B3E08BA020D
:1017C0003F08031C3F0FBB024008031C400FBC0234
:1017D0004108031C410FBD023D083C043B043A0490
:1017E000031DF32BF42B202C4D08031DF82BF92B94
:1017F000202C0030BD000030BC000030BB000030A9
:10180000BA009E2C0130C2000310BA0DBB0DBC0DF6
:10181000BD0DC20B042CCD1F0E2C0F2C102C3A1416
:101820004D1C132C142C172C0314CD0D192C031044
:10183000CD0D4C0803191D2C1E2C202C0130CC0280
:10184000BC1F232C242C022CCB01CD1F282C292C8F
:10185000372C4D087F3903192E2C2F2C322CCB011D
:10186000CB0A372C3A1C352C362C372C2F2C4B0816
:1018700003193B2C3C2C702C0130BA0700300318A4
:101880000130BB07003003180130BC0700300318DB
:101890000130BD073D1C4D2C4E2C702C3A08C20067
:1018A0003B08C3003C08C4003D08C5000130C60029
:1018B000450DC50CC40CC30CC20CC60B582C4508F6
:1018C000BD004408BC004308BB004208BA004C0AF3
:1018D00003196B2C6C2C702C0130C2004208CC0711
:1018E0004C0A0319742C752C7A2C4C08031D792C86
:1018F0007A2C882C0030BD000030BC000030BB00CA
:101900000030BA004C08031D862C872C882CCA0195
:101910004C1C8B2C8C2C8E2CBC17922C7F30C20034
:101920004208BC054C08C2000310420CC300430827
:10193000BD00CA1F9C2C9D2C9E2CBD170800831235
:10194000031323088039A8002808AD002308A80045
:101950002807A9002908B300A21FAF2CB02CB12C76
:10196000331433080319B52CB62CC52C330A031DC8
:10197000BA2CBB2CC32C0030A3000030A2000030D6
:10198000A1000030A000A217CD2C0030A300003031
:10199000A2000030A1000030A00027088039A80074
:1019A0002808AD062708A8002807A9002908B200C2
:1019B000A61FDB2CDC2CDD2C321432080319E12CA1
:1019C000E22CF12C320A031DE62CE72CEF2C003020
:1019D000A7000030A6000030A5000030A400A61724
:1019E000F92C0030A7000030A6000030A500003020
:1019F000A40032080319FD2CFE2C032D3308031D0F
:101A0000022D032D0C2D0030A3000030A200003069
:101A1000A1000030A000FF2F2008A8002808F00037
:101A200026080A168A1120240A128A1571088312C0
:101A30000313B9007008B8003808A800A901AA016A
:101A4000AB012B08B1002A08B0002908AF00280814
:101A5000AE003908A800A901AA01AB012B08B70004
:101A60002A08B6002908B5002808B4002108A800F3
:101A70002808F00025080A168A1120240A128A155F
:101A8000710883120313B9007008B8003808A80061
:101A9000A901AA01AB012808AE0729080311031800
:101AA000013E0319542DAF072A0803110318013E04
:101AB00003195B2DB0072B0803110318013E03190E
:101AC000622DB1073908A800A901AA01AB012808B5
:101AD000B407290803110318013E0319702DB50737
:101AE0002A0803110318013E0319772DB6072B08A6
:101AF00003110318013E03197E2DB7072208A80021
:101B00002808F00024080A168A1120240A128A15CF
:101B1000710883120313B9007008B8003808A800D0
:101B2000A901AA01AB012808AE072908031103186F
:101B3000013E03199C2DAF072A0803110318013E2B
:101B40000319A32DB0072B0803110318013E031935
:101B5000AA2DB1073908A800A901AA01AB012808DC
:101B6000B407290803110318013E0319B82DB5075E
:101B70002A0803110318013E0319BF2DB6072B08CD
:101B800003110318013E0319C62DB7070830A8003A
:101B90000310AE0DAF0DB00DB10DA80BC82D21086F
:101BA000A8002808F00024080A168A1120240A1226
:101BB0008A15710883120313B9007008B800380839
:101BC000A8003908A900AA01AB012808AE07290816
:101BD00003110318013E0319EE2DAF072A08031164
:101BE0000318013E0319F52DB0072B080311031844
:101BF000013E0319FC2DB1072008A8002808F000B9
:101C000025080A168A1120240A128A1571088312DF
:101C10000313B9007008B8003808A8003908A900F3
:101C2000AA01AB012808AE07290803110318013ED9
:101C300003191B2EAF072A0803110318013E0319CD
:101C4000222EB0072B0803110318013E0319292E79
:101C5000B1070830A8000310AE0DAF0DB00DB10DE7
:101C6000A80B2B2E2008A8002808F00024080A162C
:101C70008A1120240A128A15710883120313B900ED
:101C80007008B8003808A8003908A900AA01AB01FB
:101C90002808AE07290803110318013E0319512E25
:101CA000AF072A0803110318013E0319582EB00785
:101CB0002B0803110318013E03195F2EB1072108F9
:101CC000A8002808F00026080A168A1120240A1203
:101CD0008A15710883120313B9007008B800380818
:101CE000A8003908A900AA01AB012808B4072908EF
:101CF00003110318013E03197E2EB5072A080311AC
:101D00000318013E0319852EB6072B08031103188B
:101D1000013E03198C2EB7072208A8002808F000FE
:101D200025080A168A1120240A128A1571088312BE
:101D30000313B9007008B8003808A8003908A900D2
:101D4000AA01AB012808B407290803110318013EB2
:101D50000319AB2EB5072A0803110318013E031916
:101D6000B22EB6072B0803110318013E0319B92E32
:101D7000B7072208A8002808F00026080A168A11CA
:101D800020240A128A15710883120313B9007008FF
:101D9000B8003808A8003908A900AA01AB0108302A
:101DA0000310A80DA90DAA0DAB0DFF3E031DD02EEB
:101DB0002808B407290803110318013E0319E12E6E
:101DC000B5072A0803110318013E0319E82EB607C8
:101DD0002B0803110318013E0319EF2EB7072E0835
:101DE000A8002F08A9003008AA003108AB0018305D
:101DF0000310AB0CAA0CA90CA80CFF3E031DF82E77
:101E00002808B407290803110318013E0319092FF4
:101E1000B5072A0803110318013E0319102FB6074E
:101E20002B0803110318013E0319172FB7070830B9
:101E3000A8000310AE0DAF0DB00DB10DA80B192FFA
:101E400033083207A800A901A90D2808823EB8006E
:101E500029080318013EFF3EB9004B2F0130A800AE
:101E60000310B40DB50DB60DB70DA80B302FB11F73
:101E70003A2F3B2F3C2F34140130A8000310AE0D35
:101E8000AF0DB00DB10DA80B3E2FFF30B8070318F2
:101E9000B90AFF30B907B61F4E2F4F2F2E2FB201B0
:101EA000B11F532F542F702FFF302E05A800FF3085
:101EB0002F05A900FF303005AA007F303105AB00A7
:101EC0002B082A04290428040319672F682F6B2F75
:101ED000B201B20A702F341C6E2F6F2F702F682F33
:101EE00032080319742F752FA62F0130B407003064
:101EF00003180130B507003003180130B607003071
:101F000003180130B707371C862F872FA62F3408F8
:101F1000A8003508A9003608AA003708AB00013030
:101F2000AC002B0DAB0CAA0CA90CA80CAC0B912F80
:101F30002B08B7002A08B6002908B5002808B40005
:101F40000130B8070318B90A0030B9073908803AD8
:101F5000FF0080307F02031DAF2FFF303802031CCB
:101F6000B22FB32FBE2F7F3083120313B700803000
:101F7000B6000030B5000030B400F32F8312031315
:101F80003908803AFF0080307F02031DC92F0130DD
:101F900038020318CC2FCD2FD92F00308312031312
:101FA000B7000030B6000030B5000030B400AD011D
:101FB000F32F831203133808A8002808B300FF305A
:101FC000B405FF30B5057F30B6050030B705331CCA
:101FD000EA2FEB2FEC2FB6173308A8000310280CBC
:101FE000A9002908B7002D08A8002808B704370859
:101FF000A3003608A2003508A1003408A00008009C
:10255C000834831203138C1DB42AB52AAF2A8C11AC
:10256C00080064008001840A040603190034040680
:10257C00B82A8316031311151119C52AC62AC22AA3
:10258C00140808008316031391121116111ACF2A7E
:10259C00D02ACC2A080001300A168A119D230A166B
:1025AC008A111A30F700F70BD92A00000800F11F26
:1025BC00E02AE12AED2A7009F2007109F300F20A0F
:1025CC000319F30A7208F0007308F100ED2A0800F1
:1025DC00F100F0013A3071020318F52AF62AFE2AAE
:1025EC0030307102031CFB2AFC2AFE2AF001F00A8F
:1025FC00700C08007E088A007F0882000A168A1177
:10260C0000230A168A118000840A04087D06031927
:10261C000034FF0A0319FE0A042BF0007008831221
:10262C00031393000A168A11AF220A168A11831615
:10263C000313111F222B232B252B0130262B0230A9
:10264C0008008316031387150716503094002830A2
:10265C008312031394008316031391011330930018
:10266C008C15831203138C110800F2004E300A16DD
:10267C008A1151230A168A117208831203136F04EC
:10268C000A168A1113230A168A110A168A11BF22F6
:10269C000A168A110800F10083160313111411187D
:1026AC00582B592B552B831203138C1183160313A0
:1026BC009419612B622B632B692B71080A168A11F2
:1026CC0013230A168A110800F100831603139114C0
:1026DC009118712B722B6E2B831203138C11831692
:1026EC00031394197A2B7B2B7C2B822B71080A16E3
:1026FC008A1113230A168A110800F400831203139B
:10270C006C08F3007308F404740804380A168A1170
:10271C003B230A168A117408FB390A168A113B23CB
:10272C000A168A112130F300F30B9A2B0800F600DD
:10273C0083120313EC017608F0390A168A118323ED
:10274C000A168A117608F50003300310F50DFF3ECA
:10275C00031DAB2B0310750DF0390A168A11832358
:10276C000A168A110800F60083120313EC01EC0A16
:10277C007608F0390A168A1183230A168A1176080C
:10278C00F50003300310F50DFF3E031DC82B03109D
:10279C00750DF0390A168A1183230A168A1108005E
:1027AC00F401F501701CDB2BDC2BE22B7208F40717
:1027BC000318F50A7308F50701300310F20DF30D39
:1027CC00FF3E031DE32B01300310F10CF00CFF3E18
:1027DC00031DEA2B70087104031DF52BF62BD82B67
:1027EC007508F1007408F0000800F100831603135B
:1027FC009115141C022C032CFF2B831203131308AA
:10280C00F0007008F2007108031D0D2C0E2C142C16
:10281C000A168A11C8220A168A11192C0A128A1150
:10282C0005200A168A110A168A11AF220A168A1175
:10283C0072080800F800F401F5017008F200F301C9
:10284C007208F6007308F700781C2D2C2E2C342CF3
:10285C007608F4070318F50A7708F507013003101A
:10286C00F60DF70DFF3E031D352C0310F80C780800
:10287C00031D412C422C2A2C7508F1007408F00021
:10288C000800F60073087404F5007508F300D030E6
:10289C000A168A1151230A168A1100300A168A1157
:1028AC0013230A168A1176080A168A1113230A169C
:1028BC008A1172080A168A1113230A168A117308D0
:1028CC000A168A1113230A168A110A168A11BF22B4
:1028DC000A168A110800F500D0300A168A11512305
:1028EC000A168A1103300A168A1113230A168A1142
:1028FC0075080A168A1113230A168A1172080A1609
:10290C008A1113230A168A1173080A168A111323C3
:10291C000A168A1174080A168A1113230A168A11C8
:10292C000A168A11BF220A168A1108008312031391
:10293C00A400023024020318A42CA52CB22C2008CD
:10294C000F398038A3002308A50025080A168A1120
:10295C009D230A168A11BE2C20080F39C038A300FB
:10296C002308A50025080A168A119D230A168A1128
:10297C00831203132108F7002208F8000A168A11A3
:10298C0078250A168A110800FA00EC2C7708BF3E4D
:10299C000A168A119D230A168A11FF2C7708933E7A
:1029AC000A168A119D230A168A11FF2C7708D33E2A
:1029BC000A168A119D230A168A11FF2C77087F3E6E
:1029CC000A168A119D230A168A11FF2C7A08F80020
:1029DC00F9017908003A0319F42CE42C7808023A2E
:1029EC000319CC2C013A0319D42C073A0319DC2C0B
:1029FC00E42C0800780879040319052D062D352DD3
:102A0C00FD01FD0A142D01300310F80DF90DFF3EE8
:102A1C00031D0A2D0130FC007C08FD07F91F172D42
:102A2C00182D092D79087B02031D1E2D78087A02BA
:102A3C00031C212D222D282D7808FA027908031C5D
:102A4C00FB03FB0201300310F90CF80CFF3E031DD5
:102A5C00292D0130FD02031D342D352D182D7B0839
:102A6C00F9007A08F8000800F500D0300A168A112F
:102A7C0051230A168A1175080A168A1113230A168D
:102A8C008A11D1300A168A116A230A168A1100306B
:102A9C000A168A11FB230A168A11F300F401730833
:102AAC0083160313EA007408EB0000300A168A112F
:102ABC00FB230A168A11F300F4017308831603131F
:102ACC00E8007408E90001300A168A11FB230A1683
:102ADC008A11F300F401730883160313E6007408DB
:102AEC00E7000800FC01FD019D2D7C087707FA002A
:102AFC007808F9000318F90AFC1F852DF9037908E9
:102B0C00FB007B0883120313FF007A0884000A126F
:102B1C008A1500200A168A110A168A11B9230A1678
:102B2C008A110130FC070318FD0A0030FD077C08F0
:102B3C007707FA007808F9000318F90AFC1FA72D8B
:102B4C00F9037908FB007B0883120313FF007A0852
:102B5C0084000A128A1500200A168A11003A031DF5
:102B6C00B82DB92D7B2D0800F500D0300A168A112E
:102B7C0051230A168A1175080A168A1113230A168C
:102B8C008A11D1300A168A116A230A168A1100306A
:102B9C000A168A11FB230A168A11F300F401730832
:102BAC0083120313E4007408E50000300A168A113E
:102BBC00FB230A168A11F300F40173088312031322
:102BCC00E2007408E30000300A168A11FB230A168F
:102BDC008A11F300F401730883160317920074082A
:102BEC00930001300A168A11FB230A168A11F3008E
:102BFC00F4017308831603179000740891000A16E9
:102C0C008A11BF220A168A11080038308312031366
:102C1C00A0000030A1004030B5003508A2006B08C0
:102C2C00A4006A08A3000A128A1152200A168A11FB
:102C3C00033083120313B6009730B500B50B242E66
:102C4C00B60B242E3830F7000030F8000A168A1123
:102C5C0078250A168A11303083120313B500350813
:102C6C00F70032300A168A11CA240A168A11483023
:102C7C0083120313A0000030A1004B30B5003508BF
:102C8C00A2006908A4006808A3000A128A11522045
:102C9C000A168A114830F7000030F8000A168A111B
:102CAC0078250A168A11033083120313B7000830F3
:102CBC00B6007630B500B50B612EB60B612EB70B96
:102CCC00612E00000800031083120313500D510DE8
:102CDC00D2005208D8005808031D752E762E7F2E70
:102CEC000030D1000030D0000030CF000030CE00DA
:102CFC00E42E4E08D2004F08D3005008D4005108DF
:102D0C00D5001F300310D50CD40CD30CD20CFF3EC5
:102D1C00031D882E5208D6005608D700D017FF3056
:102D2C00CE05FF30CF05FF30D0050030D1059630F1
:102D3C00D802D81FA22EA32EBD2E5808803A973E3B
:102D4C000318A92EAA2EAB2E762E01300310D10C0F
:102D5C00D00CCF0CCE0CFF3E031DAC2E0130D2009C
:102D6C005208D807031DBB2EBC2EAB2ED42E203000
:102D7C005802031CC22EC32ECF2E762E0130D20049
:102D8C000310CE0DCF0DD00DD10DD20BC62E0130B0
:102D9C00D8025808031DD32ED42EC42E570803195D
:102DAC00D82ED92EE42ECE09CF09D009D109CE0ABE
:102DBC000319CF0A0319D00A0319D10A08000030ED
:102DCC000A168A113B230A168A114E30F800EB3092
:102DDC00F700F70BEF2EF80BEF2E03300A168A11C3
:102DEC009D230A168A110D30F800FB30F700F70B03
:102DFC00FD2EF80BFD2E022F03300A168A119D238F
:102E0C000A168A110D30F800FB30F700F70B0C2F67
:102E1C00F80B0C2F112F03300A168A119D230A165A
:102E2C008A110D30F800FB30F700F70B1B2FF80B55
:102E3C001B2F202F02300A168A119D230A168A1185
:102E4C000D30F800FB30F700F70B2A2FF80B2A2F68
:102E5C002F2F28300A168A119D230A168A118230C8
:102E6C00F800DD30F700F70B392FF80B392F3E2F18
:102E7C000C300A168A119D230A168A118230F8002A
:102E8C00DD30F700F70B482FF80B482F4D2F013092
:102E9C000A168A119D230A168A118230F800DD3039
:102EAC00F700F70B572FF80B572F5C2F06300A162D
:102EBC008A119D230A168A118230F800DD30F70042
:102ECC00F70B662FF80B662F6B2F0800831203137A
:102EDC009F149F18722F732F6F2FED01EE011E0898
:102EEC00D900DA015908ED005A08EE006D08DA0035
:102EFC00D9015908ED005A08EE006D08831603132A
:102F0C001E0483120313D9006E08DA005908ED0071
:102F1C005A08EE006D08F0006E08F100F201F301A2
:102F2C0000300A128A155D210A168A117308831261
:102F3C000313A7007208A6007108A5007008A4006E
:102F4C003E30A300A730A2001E30A100B830A00074
:102F5C000A128A159F240A168A1183120313230856
:102F6C00C1002208C0002108BF002008BE00C230EA
:102F7C00BD008630BC000030BB000030BA000A1225
:102F8C008A1517220A168A11831203133D08DE00D4
:102F9C003C08DD003B08DC003A08DB005E08C100A1
:102FAC005D08C0005C08BF005B08BE004230BD007D
:102FBC008030BC000030BB000030BA000A128A1509
:102FCC0017220A168A11831203133D08D1003C08FC
:102FDC00D0003B08CF003A08CE000A168A116926A9
:102FEC000A168A11831203134F08E9004E08E800F1
:042FFC000C130800AA
:08400000FF3FFF3FFF3FFF3FC0
:04400E00D22FFF3F6F
:00000001FF
