:060000000A128A11CE2F46
:100012000834F501F6017008710403191128122839
:100022004928F701F70A202801300310F00DF10DDD
:10003200FF3E031D16280130F4007408F707F11F74
:1000420023282428152801300310F50DF60DFF3E54
:10005200031D252871087302031D312870087202DE
:10006200031C342835283C287008F2027108031C4E
:10007200F303F302751401300310F10CF00CFF3E90
:10008200031D3D280130F702031D48284928242872
:100092007608F1007508F0000800831203132308A4
:1000A2008039A8002808AD002308A8002807A90065
:1000B2002908B300A21F5E285F2860283314330882
:1000C2000319642865287428330A031D69286A28DD
:1000D20072280030A3000030A2000030A1000030DE
:1000E200A000A2177C280030A3000030A20000303C
:1000F200A1000030A00027088039A8002808AD061A
:100102002708A8002807A9002908B200A61F8A28E4
:100112008B288C2832143208031990289128A028A1
:10012200320A031D952896289E280030A700003029
:10013200A6000030A5000030A400A617A8280030B1
:10014200A7000030A6000030A5000030A40032084D
:100152000319AC28AD28B2283308031DB128B228F0
:10016200BB280030A3000030A2000030A100003004
:10017200A000AE2B2008A8002808F00026080A16C6
:100182008A111A250A128A11710883120313B900FF
:100192007008B8003808A800A901AA01AB012B0811
:1001A200B1002A08B0002908AF002808AE003908BB
:1001B200A800A901AA01AB012B08B7002A08B600C2
:1001C2002908B5002808B4002108A8002808F00072
:1001D20025080A168A111A250A128A117108831231
:1001E2000313B9007008B8003808A800A901AA01D1
:1001F200AB012808AE07290803110318013E0319B1
:100202000329AF072A0803110318013E03190A291B
:10021200B0072B0803110318013E03191129B10776
:100222003908A800A901AA01AB012808B4072908C6
:1002320003110318013E03191F29B5072A080311E8
:100242000318013E03192629B6072B0803110318C8
:10025200013E03192D29B7072208A8002808F0003B
:1002620024080A168A111A250A128A1171088312A1
:100272000313B9007008B8003808A800A901AA0140
:10028200AB012808AE07290803110318013E031920
:100292004B29AF072A0803110318013E03195229FB
:1002A200B0072B0803110318013E03195929B1079E
:1002B2003908A800A901AA01AB012808B407290836
:1002C20003110318013E03196729B5072A08031110
:1002D2000318013E03196E29B6072B0803110318F0
:1002E200013E03197529B7070830A8000310AE0DA7
:1002F200AF0DB00DB10DA80B77292108A800280871
:10030200F00024080A168A111A250A128A117108A5
:1003120083120313B9007008B8003808A80039081E
:10032200A900AA01AB012808AE0729080311031886
:10033200013E03199D29AF072A0803110318013E44
:100342000319A429B0072B0803110318013E03194E
:10035200AB29B1072008A8002808F00025080A16D2
:100362008A111A250A128A11710883120313B9001D
:100372007008B8003808A8003908A900AA01AB0122
:100382002808AE07290803110318013E0319CA29D8
:10039200AF072A0803110318013E0319D129B00738
:1003A2002B0803110318013E0319D829B10708309D
:1003B200A8000310AE0DAF0DB00DB10DA80BDA29D8
:1003C2002008A8002808F00024080A168A111A2515
:1003D2000A128A11710883120313B9007008B80057
:1003E2003808A8003908A900AA01AB012808AE07FD
:1003F200290803110318013E0319002AAF072A082E
:1004020003110318013E0319072AB0072B08031131
:100412000318013E03190E2AB1072108A800280873
:10042200F00026080A168A111A250A128A11710882
:1004320083120313B9007008B8003808A8003908FD
:10044200A900AA01AB012808B4072908031103185F
:10045200013E03192D2AB5072A0803110318013E8C
:100462000319342AB6072B0803110318013E031996
:100472003B2AB7072208A8002808F00025080A1618
:100482008A111A250A128A11710883120313B900FC
:100492007008B8003808A8003908A900AA01AB0101
:1004A2002808B407290803110318013E03195A2A20
:1004B200B5072A0803110318013E0319612AB6077A
:1004C2002B0803110318013E0319682AB7072208F3
:1004D200A8002808F00026080A168A111A250A120E
:1004E2008A11710883120313B9007008B800380822
:1004F200A8003908A900AA01AB0108300310A80D11
:10050200A90DAA0DAB0DFF3E031D7F2A2808B407D3
:10051200290803110318013E0319902AB5072A0876
:1005220003110318013E0319972AB6072B0803117A
:100532000318013E03199E2AB7072E08A8002F08A8
:10054200A9003008AA003108AB0018300310AB0C28
:10055200AA0CA90CA80CFF3E031DA72A2808B40761
:10056200290803110318013E0319B82AB5072A08FE
:1005720003110318013E0319BF2AB6072B08031102
:100582000318013E0319C62AB7070830A800031052
:10059200AE0DAF0DB00DB10DA80BC82A330832074E
:1005A200A800A901A90D2808823EB800290803184D
:1005B200013EFF3EB900FA2A0130A8000310B40D33
:1005C200B50DB60DB70DA80BDF2AB11FE92AEA2A2D
:1005D200EB2A34140130A8000310AE0DAF0DB00D9C
:1005E200B10DA80BED2AFF30B8070318B90AFF3086
:1005F200B907B61FFD2AFE2ADD2AB201B11F022B5E
:10060200032B1F2BFF302E05A800FF302F05A9005A
:10061200FF303005AA007F303105AB002B082A04D9
:10062200290428040319162B172B1A2BB201B20A1C
:100632001F2B341C1D2B1E2B1F2B172B32080319AB
:10064200232B242B552B0130B40700300318013023
:10065200B507003003180130B60700300318013027
:10066200B707371C352B362B552B3408A800350815
:10067200A9003608AA003708AB000130AC002B0DE8
:10068200AB0CAA0CA90CA80CAC0B402B2B08B70086
:100692002A08B6002908B5002808B4000130B807B6
:1006A2000318B90A0030B9073908803AFF008030D0
:1006B2007F02031D5E2BFF303802031C612B622B6D
:1006C2006D2B7F3083120313B7008030B6000030E9
:1006D200B5000030B400A22B831203133908803A0C
:1006E200FF0080307F02031D782B0130380203188F
:1006F2007B2B7C2B882B003083120313B700003036
:10070200B6000030B5000030B400AD01A22B831258
:1007120003133808A8002808B300FF30B405FF30DF
:10072200B5057F30B6050030B705331C992B9A2BDF
:100732009B2BB6173308A8000310280CA900290820
:10074200B7002D08A8002808B7043708A300360808
:10075200A2003508A1003408A00008008316031384
:1007620086018701831603178801890130308316B9
:10077200031386003030831203138600831603139B
:10078200890183120313971517153F3097059501B9
:100792006530831603139200873083120313920588
:1007A2001215FC3092058B170B17831603131D15B8
:1007B2000A168A1121240A128A110A128A157C2128
:1007C2000A128A110A168A11DC230A128A111A30B5
:1007D20083120313DC00F730DB00DB0BEE2BDC0BA8
:1007E200EE2BF32B143083120313DB005B08F200B1
:1007F2001030DC005C08F3004030DD005D08F400DE
:1008020000300A168A1141250A128A1122308312F7
:100812000313DB005B08F2000430DC005C08F30029
:100822001830DD005D08F40001300A168A116B25CC
:100832000A128A1183160313C201C3010A168A110E
:10084200DC230A128A118316031342084304031D90
:100852002B2C2C2C782CA03083120313A0000030F8
:10086200A1009230DB005B08A2002430A30080309C
:10087200A4000A128A1545250A128A11831203134B
:10088200A001A030A1000030A20000300A168A1197
:1008920096250A128A11023083120313DD000430F6
:1008A200DC00B930DB00DB0B542CDC0B542CDD0BF1
:1008B200542C5B2C831203138919602C612CB02FEA
:1008C200861A642C652CB02F8919682C692C6D2C22
:1008D200861E6C2C6D2C652C831603134208013E78
:1008E200C20043080318013E003EC300B02F42037A
:1008F2004304031D7D2C7E2CA32E00300A168A1180
:1009020034260A128A110A168A11C1230A128A117E
:10091200831603134C1F8E2C8F2C2D2DCC1E922C44
:10092200932CA42C0D3083120313DB005B08A00070
:100932008F30A1008030A20001300A168A1196255C
:100942000A128A11B42C0D3083120313DB005B08E8
:10095200A0008C30A1008030A20001300A168A115A
:1009620096250A128A111F30831603134C05CC00F8
:1009720000304D05CD00DC3083120313A00000309F
:10098200A1006830DB005B08A20083160313510844
:1009920083120313A4008316031350088312031354
:1009A200A3000A128A1545250A128A11D23083122F
:1009B2000313A0000030A1005D30DB005B08A20041
:1009C200831603134F0883120313A4008316031321
:1009D2004E0883120313A3000A128A1545250A1230
:1009E2008A11AE3083120313A0000130A1005930E6
:1009F200DB005B08A200831603134D088312031366
:100A0200A400831603134C0883120313A3000A12D3
:100A12008A1545250A128A1183120313A001AE30EA
:100A2200A1000130A20000300A168A1196250A128E
:100A32008A11D230F7000030F8000A168A117226A5
:100A42000A128A11DC30F7000030F8000A168A1107
:100A520072260A128A11922D3F304C05CC000030CA
:100A62004D05CD00DC3083120313A0000030A1003D
:100A72006830DB005B08A20083160313510883125F
:100A82000313A40083160313500883120313A30055
:100A92000A128A1545250A128A11D23083120313CB
:100AA200A0000030A1005D30DB005B08A2008316CD
:100AB20003134F0883120313A400831603134E0873
:100AC20083120313A3000A128A1545250A128A11FA
:100AD200AE3083120313A0000130A1005930DB00B5
:100AE2005B08A200831603134D0883120313A400AC
:100AF200831603134C0883120313A3000A128A15E8
:100B020045250A128A1183120313A001AE30A100F7
:100B12000130A20000300A168A1196250A128A11A3
:100B22001A2D03300A128A15AF200A128A110A16E8
:100B32008A11C1230A128A11A43083120313A0005E
:100B42000130A1005130DB005B08A20083160313C1
:100B5200490883120313A40083160313480883125F
:100B62000313A3000A128A1545250A128A119A3024
:100B720083120313A0000130A1005530DB005B0893
:100B8200A20083160313470883120313A4008316DB
:100B92000313460883120313A3000A128A1545257C
:100BA2000A128A11903083120313A0000130A100AF
:100BB2006830DB005B08A20083160313450883122A
:100BC2000313A40083160313440883120313A30020
:100BD2000A128A1545250A128A1183120313A001EB
:100BE200A430A1000130A20002300A168A11962513
:100BF2000A128A119A30F7000130F8000A168A1197
:100C020072260A128A119030F7000130F8000A1693
:100C12008A1172260A128A115E2E7C30F700803009
:100C2200F8000A168A1172260A128A11852E783065
:100C3200F7008030F8000A168A1172260A128A1109
:100C4200852E7030F7008030F8000A168A1172265D
:100C52000A128A11852E6C30F7008030F8000A16CD
:100C62008A1172260A128A11852E8430F70080308A
:100C7200F8000A168A1172260A128A11852E743019
:100C8200F7008030F8000A168A1172260A128A11B9
:100C9200852E8030F7008030F8000A168A117226FD
:100CA2000A128A11852E8830F7008030F8000A1661
:100CB2008A1172260A128A11852E831603134A0894
:100CC200E63E84008313000883120313DB00DC0179
:100CD2005C08003A03196E2E542E5B08463A03193B
:100CE200402E0B3A0319182E1E3A03190E2E073AFC
:100CF2000319222E033A03192C2E243A03194A2EE1
:100D0200073A0319362E542E1A3083120313DC00CD
:100D1200F730DB00DB0B8B2EDC0B8B2E902E83123D
:100D220003138919952E962EB02F861A992E9A2E74
:100D3200B02F89199D2E9E2E6D2C861EA12EA22EBD
:100D42009A2E6D2C023042064304031DA92EAA2EB0
:100D5200E52E831603178815C030831203139F04F0
:100D62001F08C3390C389F00831603139F121F12EA
:100D72009F17831203130C13831603130C1783128A
:100D820003131F140A168A1187270A128A110A16D8
:100D92008A1112270A128A110A168A11B4260A1215
:100DA2008A11831203138919D72ED82EB02F861ACF
:100DB200DB2EDC2EB02F8919DF2EE02E6D2C861E45
:100DC200E32EE42EDC2E6D2C033042064304031D79
:100DD200EB2EEC2EB02F831603170816C0308312A9
:100DE20003139F041F08C33910389F00831603138F
:100DF2009F121F129F17831203130C1383160313E0
:100E02000C17831203131F149F1483160313C001BC
:100E1200C10183129F180E2F0F2F0A2F831603135F
:100E2200C001C101831203131E08DB00DC015B0851
:100E320083160313C000831203135C088316031383
:100E4200C100400883120313DC00DB015B08831638
:100E52000313C000831203135C0883160313C1003B
:100E620040081E0483120313DB0083160313410898
:100E720083120313DC005B0883160313C000831282
:100E820003135C0883160313C100831203130C13AC
:100E92000A30F0000030F100831603134108F3001A
:100EA2004008F2000A128A110A200A128A117008F6
:100EB200831203139500B030A0000030A10030303F
:100EC200DB005B08A200831603134108831203139D
:100ED200A40083160313400883120313A3000A120B
:100EE2008A1545250A128A1183120313A001B03014
:100EF200A1000030A20000300A168A1196250A12BB
:100F02008A11023083120313DD000430DC00B93091
:100F1200DB00DB0B8A2FDC0B8A2FDD0B8A2F912F54
:100F2200831203138919962F972FB02F861A9A2F9F
:100F32009B2FB02F89199E2F9F2FA32F861EA22F82
:100F4200A32F9B2F831603134208013EC2004308BE
:100F52000318013E003EC3008312031395011A30A9
:100F620083120313DC00F730DB00DB0BB62FDC0B44
:100F7200B62FBB2F831603134308803AFF0080303D
:100F82007F02031DC62F04304202031CC92FCA2F41
:100F92001F2C1B2C0A128A1100288313EF30FD002C
:100FA2000830FE00A630FF00E63084000A168A11DF
:100FB200FE230A128A110A128A1109200A128A11C0
:100FC200E900831790308400B8300A168A11B923D9
:100FD2000A128A118313C4308400E6300A168A1179
:100FE200B9230A128A115E30840069300A168A1106
:100FF200B9230A128A1183010A128A11AF2BFF1B2D
:101002000A2883137F1883170008840A0319FF0A2A
:10101200080008308A000408840A82070034013478
:1010220000340A34003464340034E83403341034B5
:1010320027340134003410340034003401340034D5
:101042001034303431343234333434343534363489
:101052003734383439346134623463346434653457
:1010620066340034483465346C346C346F34203464
:101072005434683465347234653400345334703413
:10108200653461346B34653472343A3425346434F3
:101092000034543465346D3470343A342534333486
:1010A20064342A3443340034543465346D34703437
:1010B2003A342534333464342A34463400344334E5
:1010C20061346C343A34253478342D340034543459
:1010D20069346D343A34253478343A34003428345F
:1010E2006E3475346C346C342934003425347834DD
:1010F2002034003457346534643400345434753445
:101102006534003446347234693400344D346F34FB
:101112006E340034533475346E34003453346134D5
:1011220074340034543468347534003449346E34C1
:101132007634003441344D34003450344D3400346C
:0611420025347334003473
:10114C0053344D3454345734743446347334053476
:10115C000634F500D0300A168A114B240A128A156F
:10116C0075080A168A110D240A128A15D1300A162E
:10117C008A1164240A128A1500300A168A11F52481
:10118C000A128A15F300F401730883160313CA00BC
:10119C007408CB0000300A168A11F5240A128A153D
:1011AC00F300F401730883160313C8007408C90014
:1011BC0000300A168A11F5240A128A15F300F4017C
:1011CC00730883160313C6007408C70001300A168F
:1011DC008A11F5240A128A15F300F4017308831698
:1011EC000313C4007408C5000A168A11C1230A121D
:1011FC008A150800031083120313500D510DD200F1
:10120C005208D8005808031D0C290D291629003046
:10121C00D1000030D0000030CF000030CE007B2950
:10122C004E08D2004F08D3005008D4005108D50006
:10123C001F300310D50CD40CD30CD20CFF3E031D65
:10124C001F295208D6005608D700D017FF30CE05FC
:10125C00FF30CF05FF30D0050030D1059630D802D5
:10126C00D81F39293A2954295808803A973E03182F
:10127C004029412942290D2901300310D10CD00CF1
:10128C00CF0CCE0CFF3E031D43290130D200520877
:10129C00D807031D5229532942296B2920305802A3
:1012AC00031C59295A2966290D290130D200031033
:1012BC00CE0DCF0DD00DD10DD20B5D290130D80242
:1012CC005808031D6A296B295B29570803196F29D4
:1012DC0070297B29CE09CF09D009D109CE0A03196F
:1012EC00CF0A0319D00A0319D10A080000300A16D4
:1012FC008A1135240A128A154E30F800EB30F700AB
:10130C00F70B8629F80B862903300A168A119724C5
:10131C000A128A150D30F800FB30F700F70B9429F0
:10132C00F80B9429992903300A168A1197240A126A
:10133C008A150D30F800FB30F700F70BA329F80BDA
:10134C00A329A82903300A168A1197240A128A1590
:10135C000D30F800FB30F700F70BB229F80BB2296F
:10136C00B72902300A168A1197240A128A150D30F1
:10137C00F800FB30F700F70BC129F80BC129C6297F
:10138C0028300A168A1197240A128A158230F8001E
:10139C00DD30F700F70BD029F80BD029D5290C300C
:1013AC000A168A1197240A128A158230F800DD3049
:1013BC00F700F70BDF29F80BDF29E42901300A16B7
:1013CC008A1197240A128A158230F800DD30F70052
:1013DC00F70BEE29F80BEE29F32906300A168A11C1
:1013EC0097240A128A158230F800DD30F700F70BCB
:1013FC00FD29F80BFD29022A0800F80078080319CA
:10140C00082A092A1D2AF31F0C2A0D2A1D2A7009E5
:10141C00FA007109FB007209FC007309FD00FA0A5D
:10142C000319FB0A0319FC0A0319FD0A252A730880
:10143C00FD007208FC007108FB007008FA007308CC
:10144C00720471047004031D2C2A2D2A362A0030D4
:10145C00F3000030F2000030F1000030F000BC2A44
:10146C009630F4007408F900482A0130F40074082E
:10147C00F90701300310FD0CFC0CFB0CFA0CFF3EC1
:10148C00031D402AFE307D05031D4D2A4E2A3B2AA2
:10149C006A2A0130F4007408F9070130FA070030A9
:1014AC0003180130FB07003003180130FC07003033
:1014BC0003180130FD0701300310FD0CFC0CFB0C74
:1014CC00FA0CFF3E031D622AFF307D05031D6F2AB7
:1014DC00702A4F2A7C2A0130F9020130F4000310E3
:1014EC00FA0DFB0DFC0DFD0DF40B752AFC1B7F2A70
:1014FC00802A862A023079020318852A862A712AC4
:10150C007918892A8A2A922AFF30FA05FF30FB05BE
:10151C007F30FC05FF30FD050310F90C7908F40051
:10152C00F501F601F70118300310F40DF50DF60D69
:10153C00F70DFF3E031D9A2A7408FA047508FB0484
:10154C007608FC047708FD0478080319AE2AAF2A44
:10155C00B42AF31FB22AB32AB42AFD177D08F3006C
:10156C007C08F2007B08F1007A08F0000800831276
:10157C0003133D088039C2004208CA003D08C2006E
:10158C004207C3004308CC00BC1FCD2ACE2ACF2A69
:10159C004C144C080319D32AD42AE42A4C0A031DF0
:1015AC00D82AD92AE12A0030BD000030BC00003016
:1015BC00BB000030BA00BC17BD01EC2A0030BD00E6
:1015CC000030BC000030BB000030BA00410880394C
:1015DC00C2004208CB004B084A060319F62AF72A28
:1015EC00F82A4A174108C2004207C3004308CB003F
:1015FC00C01F012B022B032B4B144B080319072B79
:10160C00082B182B4B0A031D0C2B0D2B152B003004
:10161C00C1000030C0000030BF000030BE00C01759
:10162C00C101202B0030C1000030C0000030BF00D1
:10163C000030BE004C084B020318252B262B6A2BBE
:10164C004A1F292B2A2B2E2B8030C2004208CA0697
:10165C004C08C2004208CD004B08C2004208CC0026
:10166C004D08C2004208CB003A08C2004208CD0027
:10167C003E08C2004208BA004D08C2004208BE0033
:10168C003B08C2004208CD003F08C2004208BB0024
:10169C004D08C2004208BF003C08C2004208CD0001
:1016AC004008C2004208BC004D08C2004208C000FD
:1016BC003D08C2004208CD004108C2004208BD00EE
:1016CC004D08C2004208C100CD014B08C200C30145
:1016DC004308C5004C084202C400031CC50345085E
:1016EC00803AFF0080307F02031D7E2B1A304402AB
:1016FC00031C812B822BBF2B831203133D083C044C
:10170C003B043A04031D8B2B8D2B01308E2B0030A8
:10171C00C2004208CD000030BD000030BC000030DB
:10172C00BB000030BA004B08C2004208CC00C72BEB
:10173C004D1CA12BA22BAB2B4D08C2000310420C4D
:10174C000138C3004308CD00AD2B0310CD0C3A1C5F
:10175C00B02BB12BB22BCD170130C2003D0DBD0CFF
:10176C00BC0CBB0CBA0CC20BB42B0130C20042082F
:10177C00CC07831203134B084C02031CC62BC72B3C
:10178C009E2B4A1BCA2BCB2B162C4C08031DCF2B84
:10179C00D02BD92B0030BD000030BC000030BB007A
:1017AC000030BA00442D3E08BA073F080311031855
:1017BC00013E0319E22BBB07400803110318013E3D
:1017CC000319E92BBC07410803110318013E031947
:1017DC00F02BBD073D1CF32BF42BCA2C4D1CF72B07
:1017EC00F82B012C4D08C2000310420C0138C30029
:1017FC004308CD00032C0310CD0C3A1C062C072CEF
:10180C00082CCD170130C2003D0DBD0CBC0CBB0C1F
:10181C00BA0CC20B0A2C0130C2004208CC07CA2CED
:10182C003D08803AFF004108803A7F02031D282CB6
:10183C0040083C02031D282C3F083B02031D282CAA
:10184C003E083A0203182B2C2C2C842CFF30C2009F
:10185C00FF30C300FF30C400FF30C5003E08C60097
:10186C003F08C7004008C8004108C9003A08C60232
:10187C003B08031C3B0F432C442CC7023C08031CA5
:10188C003C0F492C4A2CC8023D08031C3D0F4F2C21
:10189C00502CC9024608C20747080318470F572C9B
:1018AC00582CC30748080318480F5D2C5E2CC4073E
:1018BC0049080318490AC5074508BD004408BC007F
:1018CC004308BB004208BA008030C2004208CA0676
:1018DC00CD09CD0A4D08031D742C752C922C0130AA
:1018EC00BA07003003180130BB0700300318013071
:1018FC00BC07003003180130BD07922C3E08BA0219
:10190C003F08031C3F0FBB024008031C400FBC02E6
:10191C004108031C410FBD023D083C043B043A0442
:10192C00031D992C9A2CC62C4D08031D9E2C9F2C04
:10193C00C62C0030BD000030BC000030BB000030B5
:10194C00BA00442D0130C2000310BA0DBB0DBC0D02
:10195C00BD0DC20BAA2CCD1FB42CB52CB62C3A1431
:10196C004D1CB92CBA2CBD2C0314CD0DBF2C03105F
:10197C00CD0D4C080319C32CC42CC62C0130CC0241
:10198C00BC1FC92CCA2CA82CCB01CD1FCE2CCF2C04
:10199C00DD2C4D087F390319D42CD52CD82CCB0138
:1019AC00CB0ADD2C3A1CDB2CDC2CDD2CD52C4B088B
:1019BC000319E12CE22C162D0130BA070030031864
:1019CC000130BB07003003180130BC07003003188E
:1019DC000130BD073D1CF32CF42C162D3A08C20027
:1019EC003B08C3003C08C4003D08C5000130C600DC
:1019FC00450DC50CC40CC30CC20CC60BFE2C450803
:101A0C00BD004408BC004308BB004208BA004C0AA5
:101A1C000319112D122D162D0130C2004208CC07CE
:101A2C004C0A03191A2D1B2D202D4C08031D1F2D9C
:101A3C00202D2E2D0030BD000030BC000030BB002E
:101A4C000030BA004C08031D2C2D2D2D2E2DCA0153
:101A5C004C1C312D322D342DBC17382D7F30C2004B
:101A6C004208BC054C08C2000310420CC3004308DA
:101A7C00BD00CA1F422D432D442DBD170800233035
:101A8C0083120313A5002508AC00E72F253034067C
:101A9C000319512D522D622D3408A5002008840005
:101AAC008317211C8313250880000130A00703181D
:101ABC00A10A0030A107E72FB201B301AF01220840
:101ACC0084000A128A150A200A128A150A168A112B
:101ADC00E8230A128A15031C742D752D472E8312C8
:101AEC000313B201B3010A30F0000030F10083128D
:101AFC0003133308F3003208F2000A168A11D024BB
:101B0C000A128A15710883120313B3007008B2000D
:101B1C00220884000A128A150A200A128A15D03E5D
:101B2C00A500FF3003180030A6002508B2070318E3
:101B3C00B30A2608B3070130A5002508A20722081E
:101B4C0084000A128A150A200A128A150A168A11AA
:101B5C00E8230A128A150318B42DB52D792D472EBA
:101B6C00AF176C2E2C08840083130008AA00840A7B
:101B7C0000088403AB000230A5002508AC072A0836
:101B8C002B04031DCA2DCB2DCF2D6130AA00803024
:101B9C00AB00AD01AE01D82D0130AD070318AE0A74
:101BAC000030AE072D082A0784002B0803182B0AD7
:101BBC00FF000A128A1500200A128A15003A031D2A
:101BCC00E82DE92DD22D33082E02031DEF2D3208FE
:101BDC002D020318F22DF32DFA2D2D08B2022E082A
:101BEC00031CB303B3020C2EB201B3010C2E203034
:101BFC00A500200884008317211C8313250880006E
:101C0C000130A0070318A10A0030A107FF30B2076A
:101C1C000318B30AFF30B307320A031D192E330A17
:101C2C00031D192E1A2EFD2D382E2B08FF002A0805
:101C3C0084000A128A1500200A128A15A5002008B1
:101C4C0084008317211C8313250880000130AA0708
:101C5C000318AB0A0030AB070130A0070318A10A28
:101C6C000030A1070130AD020030031CAE03AE0200
:101C7C002D0A031D452E2E0A031D452E462E1B2E06
:101C8C00E72F013083120313A207FF3022078400D1
:101C9C000A128A150A200A128A15B400A500A60198
:101CAC002608003A03195B2EE72F2508003A031982
:101CBC00F92F643A03196C2E0D3A03196C2E1A3A4B
:101CCC000319B82D0B3A0319B62DE72FAF1B6F2E46
:101CDC00702E8A2E2C08840083130008B000840A0E
:101CEC000008B1000230A5002508AC07B11F7F2EFB
:101CFC00802EE92E0330A5002508AF04B009B109E8
:101D0C00B00A0319B10AE92E2C08840083130008C9
:101D1C00B000840A0008B1000230A5002508AC0709
:101D2C00E92EB401B40A3408A5002507013E84004D
:101D3C000A128A150A200A128A15A6000A128A1596
:101D4C000A200A128A15A70027083102031DB02E9B
:101D5C00260830020318B32EB42EB52EFA2E0130FD
:101D6C00A5002508B40705303406031DBE2EBF2E72
:101D7C00992EFA2EB401B40A3408A50025070B3E9F
:101D8C0084000A128A150A200A128A15A6000A1261
:101D9C008A150A200A128A15A70027083102031D8A
:101DAC00D92E260830020318DC2EDD2EDE2EFA2E5C
:101DBC000130A5002508B40704303406031DE72EB6
:101DCC00E82EC22EFA2E2F088039A500A60126086F
:101DDC00003A0319F22EFA2E2508003A0319972E11
:101DEC00803A0319C02EFA2E320833040319FF2E41
:101DFC00002F0C2F2F0803390319052F062F0C2F3A
:101E0C00FF30B2070318B30AFF30B3073308803A28
:101E1C00803C031D132F320834020318162F172F82
:101E2C00232F831203133408A500A6012508B20240
:101E3C002608031CB303B302272F83120313B2012A
:101E4C00B3013208330403192C2F2D2F482F2030C7
:101E5C00A500200884008317211C8313250880000B
:101E6C000130A0070318A10A0030A107FF30B20708
:101E7C000318B30AFF30B30732083304031D472F8E
:101E8C00482F2D2F2F08033903194D2F4E2F5D2F5F
:101E9C002D30A500200884008317211C83132508EE
:101EAC0080000130A0070318A10A0030A1073408F4
:101EBC00A5002508A900DE2F0A30F8000030F90033
:101ECC002908A5002507013E84000A128A150A205C
:101EDC000A128A15F0000A128A150A200A128A15AB
:101EEC00F1003108F3003008F2000A128A110A20BE
:101EFC000A128A157108FB007008FA000A168A117A
:101F0C00FA250A128A157808303E83120313A600AC
:101F1C002608B400CF2F2908A50025070B3E840006
:101F2C000A128A150A200A128A15F0000A128A155A
:101F3C000A200A128A15F1003108F3003008F20069
:101F4C000A128A110A200A128A1570080F39831294
:101F5C000313A6002608A8002808133E84000A12C2
:101F6C008A150A200A128A15A5002508B400CF2F5D
:101F7C002F088039A500A6012608003A0319C72F9F
:101F8C00CF2F2508003A0319622F803A0319912F9D
:101F9C00CF2F3408A500200884008317211C83133D
:101FAC00250880000130A0070318A10A0030A10702
:101FBC00FF30A5002508A907290A031DE62FE72FE6
:101FCC00BE2F0130A207FF30220784000A128A15A7
:101FDC000A200A128A15A5002508B4003408031D2E
:101FEC00F82FF92F4C2D200884008317211C831304
:041FFC008001080058
:10276200831203138C1DB62BB72BB12B8C110800CF
:1027720064008001840A0406031900340406BA2B9B
:102782008316031311151119C72BC82BC42B140858
:1027920008008316031391121116111AD12BD22B92
:1027A200CE2B08008316031391161116111ADA2B79
:1027B200DB2BD72B080001300A168A1197240A1640
:1027C2008A111A30F700F70BE42B00000800F10021
:1027D200F0013A3071020318EF2BF02BF82B303056
:1027E2007102031CF52BF62BF82BF001F00A700C8A
:1027F20008007E088A007F0882000A168A11FA23DE
:102802000A168A118000840A04087D06031900341E
:10281200FF0A0319FE0AFE2BF0007008831203134D
:1028220093000A168A11B1230A168A11831603131A
:10283200111F1C2C1D2C1F2C0130202C02300800D3
:10284200831603138715071650309400283083121D
:1028520003139400831603139101133093008C1514
:10286200831203138C110800F2004E300A168A11EB
:102872004B240A168A1172088312031369040A167A
:102882008A110D240A168A110A168A11C1230A1600
:102892008A110800F1008316031311141118522C27
:1028A200532C4F2C831203138C1183160313941988
:1028B2005B2C5C2C5D2C632C71080A168A110D248A
:1028C2000A168A110800F100831603139114911855
:1028D2006B2C6C2C682C831203138C11831603133C
:1028E2009419742C752C762C7C2C71080A168A117A
:1028F2000D240A168A110800F400831203136608D5
:10290200F3007308F404740804380A168A11352493
:102912000A168A117408FB390A168A1135240A1616
:102922008A112130F300F30B942C0800F600831275
:102932000313E6017608F0390A168A117D240A1675
:102942008A117608F50003300310F50DFF3E031DD2
:10295200A52C0310750DF0390A168A117D240A166A
:102962008A110800F60083120313E601E60A7608CC
:10297200F0390A168A117D240A168A117608F500A2
:1029820003300310F50DFF3E031DC22C0310750D1D
:10299200F0390A168A117D240A168A110800F401F8
:1029A200F501701CD52CD62CDC2C7208F407031808
:1029B200F50A7308F50701300310F20DF30DFF3E1F
:1029C200031DDD2C01300310F10CF00CFF3E031D42
:1029D200E42C70087104031DEF2CF02CD22C750826
:1029E200F1007408F0000800F1008316031391153A
:1029F200141CFC2CFD2CF92C831203131308F00079
:102A02007008F2007108031D072D082D0E2D0A16FD
:102A12008A11CA230A168A11132D0A168A11D32380
:102A22000A168A110A168A11B1230A168A11720825
:102A32000800F800F401F5017008F200F3017208D1
:102A4200F6007308F700781C272D282D2E2D760806
:102A5200F4070318F50A7708F50701300310F60D9D
:102A6200F70DFF3E031D2F2D0310F80C7808031DF0
:102A72003B2D3C2D242D7508F1007408F000080050
:102A8200F60073087404F5007508F300D0300A16D6
:102A92008A114B240A168A1100300A168A110D2453
:102AA2000A168A1176080A168A110D240A168A1144
:102AB20072080A168A110D240A168A1173080A1658
:102AC2008A110D240A168A110A168A11C1230A16BE
:102AD2008A110800F500D0300A168A114B240A1612
:102AE2008A1103300A168A110D240A168A117508F2
:102AF2000A168A110D240A168A1172080A168A11F8
:102B02000D240A168A1173080A168A110D240A1650
:102B12008A1174080A168A110D240A168A110A16D5
:102B22008A11C1230A168A11080083120313A40012
:102B32000230240203189E2D9F2DAC2D20080F3940
:102B42008038A3002308A50025080A168A119724B5
:102B52000A168A11B82D20080F39C038A30023089D
:102B6200A50025080A168A1197240A168A118312CB
:102B720003132108F7002208F8000A168A117226A8
:102B82000A168A110800FA00E62D7708BF3E0A16D7
:102B92008A1197240A168A11F92D7708933E0A168C
:102BA2008A1197240A168A11F92D7708D33E0A163C
:102BB2008A1197240A168A11F92D77087F3E0A1680
:102BC2008A1197240A168A11F92D7A08F800F90158
:102BD2007908003A0319EE2DDE2D7808023A03191E
:102BE200C62D013A0319CE2D073A0319D62DDE2D33
:102BF2000800780879040319FF2D002E2F2EFD01FD
:102C0200FD0A0E2E01300310F80DF90DFF3E031DD3
:102C1200042E0130FC007C08FD07F91F112E122E34
:102C2200032E79087B02031D182E78087A02031CF2
:102C32001B2E1C2E222E7808FA027908031CFB0395
:102C4200FB0201300310F90CF80CFF3E031D232E8A
:102C52000130FD02031D2E2E2F2E122E7B08F900AD
:102C62007A08F8000800F500D0300A168A114B24C1
:102C72000A168A1175080A168A110D240A168A1173
:102C8200D1300A168A1164240A168A1100300A16F3
:102C92008A11F5240A168A11F300F40173088316C7
:102CA2000313D0007408D10000300A168A11F524EB
:102CB2000A168A11F300F401730883160313CE0077
:102CC2007408CF0001300A168A11F5240A168A11F7
:102CD200F300F401730883160313CC007408CD00CB
:102CE2000800FC01FD01972E7C087707FA0078089E
:102CF200F9000318F90AFC1F7F2EF9037908FB007B
:102D02007B0883120313FF007A0884000A128A15D3
:102D120000200A168A110A168A11B3240A168A1189
:102D22000130FC070318FD0A0030FD077C08770715
:102D3200FA007808F9000318F90AFC1FA12EF9031A
:102D42007908FB007B0883120313FF007A088400D2
:102D52000A128A1500200A168A11003A031DB22EA1
:102D6200B32E752E0800383083120313A0000030F2
:102D7200A1003B30B5003508A2006508A400640834
:102D8200A3000A128A1545250A168A1103308312F6
:102D92000313B6009730B500B50BCD2EB60BCD2E72
:102DA2003830F7000030F8000A168A1172260A1627
:102DB2008A11303083120313B5003508F700323020
:102DC2000A168A11C4250A168A114830831203137F
:102DD200A0000030A1004630B5003508A20063080B
:102DE200A4006208A3000A128A1545250A168A1150
:102DF2004830F7000030F8000A168A1172260A16C7
:102E02008A11033083120313B7000830B6007630FC
:102E1200B500B50B0A2FB60B0A2FB70B0A2F00000D
:102E22000800831203139F149F18182F192F152FB0
:102E3200E701E8011E08D900DA015908E7005A083B
:102E4200E8006708DA00D9015908E7005A08E800E3
:102E52006708831603131E0483120313D90068083C
:102E6200DA005908E7005A08E8006708F000680825
:102E7200F100F201F30100300A128A1503220A1648
:102E82008A11730883120313A7007208A60071083F
:102E9200A5007008A4003F30A300A230A2000030B9
:102EA200A1000030A0000A128A114E200A168A11CF
:102EB200831203132308C1002208C0002108BF00A7
:102EC2002008BE00C230BD008630BC000030BB000E
:102ED2000030BA000A128A15BD220A168A1183121C
:102EE20003133D08D1003C08D0003B08CF003A084C
:102EF200CE000A128A1500210A168A1183120313C0
:102F02004F08E3004E08E2000C130800831203137B
:102F12009F149F188D2F8E2F8A2FE701E8011E081C
:102F2200D900DA015908E7005A08E8006708DA0010
:102F3200D9015908E7005A08E80067088316031305
:102F42001E0483120313D9006808DA005908E70047
:102F52005A08E8000C136708F0006808F100F20153
:102F6200F30100300A128A1503220A168A11730825
:102F720083120313A7007208A6007108A500700847
:102F8200A4003F30A3003330A2003330A10033301D
:102F9200A0000A128A114E200A168A118312031304
:102FA2002308C1002208C0002108BF002008BE007B
:102FB200C230BD005C30BC000030BB000030BA0043
:102FC2000A128A15BD220A168A11831203133D08BA
:102FD200D1003C08D0003B08CF003A08CE000A12CC
:102FE2008A1500210A168A11831203134F08E5007D
:0E2FF2004E08E4000130E0000030E10008006D
:08400000FF3FFF3FFF3FFF3FC0
:04400E00D22FFF3F6F
:00000001FF
