:100000000A128A11B92F023400340834F501F601BE
:100010007008710403190D280E284528F701F70A06
:100020001C2801300310F00DF10DFF3E031D1228B6
:100030000130F4007408F707F11F1F282028112849
:1000400001300310F50DF60DFF3E031D2128710848
:100050007302031D2D2870087202031C30283128FA
:1000600038287008F2027108031CF303F3027514B8
:1000700001300310F10CF00CFF3E031D3928013054
:10008000F702031D4428452820287608F10075084A
:10009000F00008008312031323088039A800280801
:1000A000AD002308A8002807A9002908B300A21F53
:1000B0005A285B285C283314330803196028612808
:1000C0007028330A031D652866286E280030A300B7
:1000D0000030A2000030A1000030A000A217782854
:1000E0000030A3000030A2000030A1000030A000CA
:1000F00027088039A8002808AD062708A800280787
:10010000A9002908B200A61F86288728882832144B
:10011000320803198C288D289C28320A031D912847
:1001200092289A280030A7000030A6000030A500D1
:100130000030A400A617A4280030A7000030A600B5
:100140000030A5000030A40032080319A828A9280F
:10015000AE283308031DAD28AE28B7280030A30011
:100160000030A2000030A1000030A000AA2B20081F
:10017000A8002808F00026080A168A11DE230A12B1
:100180008A11710883120313B9007008B800380887
:10019000A800A901AA01AB012B08B1002A08B000F0
:1001A0002908AF002808AE003908A800A901AA0153
:1001B000AB012B08B7002A08B6002908B5002808AB
:1001C000B4002108A8002808F00025080A168A11A2
:1001D000DE230A128A11710883120313B900700812
:1001E000B8003808A800A901AA01AB012808AE0789
:1001F000290803110318013E0319FF28AF072A0835
:1002000003110318013E03190629B0072B08031137
:100210000318013E03190D29B1073908A800A901E7
:10022000AA01AB012808B407290803110318013EED
:1002300003191B29B5072A0803110318013E0319E6
:100240002229B6072B0803110318013E0319292997
:10025000B7072208A8002808F00024080A168A1107
:10026000DE230A128A11710883120313B900700881
:10027000B8003808A800A901AA01AB012808AE07F8
:10028000290803110318013E03194729AF072A085B
:1002900003110318013E03194E29B0072B0803115F
:1002A0000318013E03195529B1073908A800A9010F
:1002B000AA01AB012808B407290803110318013E5D
:1002C00003196329B5072A0803110318013E03190E
:1002D0006A29B6072B0803110318013E0319712977
:1002E000B7070830A8000310AE0DAF0DB00DB10D6B
:1002F000A80B73292108A8002808F00024080A1672
:100300008A11DE230A128A11710883120313B900BD
:100310007008B8003808A8003908A900AA01AB0184
:100320002808AE07290803110318013E031999296B
:10033000AF072A0803110318013E0319A029B007CB
:100340002B0803110318013E0319A729B107200840
:10035000A8002808F00025080A168A11DE230A12D0
:100360008A11710883120313B9007008B8003808A5
:10037000A8003908A900AA01AB012808AE0729087E
:1003800003110318013E0319C629AF072A080311F8
:100390000318013E0319CD29B0072B0803110318D8
:1003A000013E0319D429B1070830A8000310AE0D8F
:1003B000AF0DB00DB10DA80BD6292008A800280854
:1003C000F00024080A168A11DE230A128A11710825
:1003D00083120313B9007008B8003808A800390860
:1003E000A900AA01AB012808AE07290803110318C8
:1003F000013E0319FC29AF072A0803110318013E27
:100400000319032AB0072B0803110318013E03192F
:100410000A2AB1072108A8002808F00026080A16B1
:100420008A11DE230A128A11710883120313B9009C
:100430007008B8003808A8003908A900AA01AB0163
:100440002808B407290803110318013E0319292AB3
:10045000B5072A0803110318013E0319302AB6070D
:100460002B0803110318013E0319372AB707220886
:10047000A8002808F00025080A168A11DE230A12AF
:100480008A11710883120313B9007008B800380884
:10049000A8003908A900AA01AB012808B407290857
:1004A00003110318013E0319562AB5072A08031140
:1004B0000318013E03195D2AB6072B080311031820
:1004C000013E0319642AB7072208A8002808F00093
:1004D00026080A168A11DE230A128A11710883126D
:1004E0000313B9007008B8003808A8003908A9003B
:1004F000AA01AB0108300310A80DA90DAA0DAB0D80
:10050000FF3E031D7B2A2808B4072908031103189E
:10051000013E03198C2AB5072A0803110318013E6E
:100520000319932AB6072B0803110318013E031978
:100530009A2AB7072E08A8002F08A9003008AA0099
:100540003108AB0018300310AB0CAA0CA90CA80C96
:10055000FF3E031DA32A2808B40729080311031826
:10056000013E0319B42AB5072A0803110318013EF6
:100570000319BB2AB6072B0803110318013E031900
:10058000C22AB7070830A8000310AE0DAF0DB00D9A
:10059000B10DA80BC42A33083207A800A901A90D80
:1005A0002808823EB80029080318013EFF3EB90022
:1005B000F62A0130A8000310B40DB50DB60DB70D25
:1005C000A80BDB2AB11FE52AE62AE72A34140130FA
:1005D000A8000310AE0DAF0DB00DB10DA80BE92AA8
:1005E000FF30B8070318B90AFF30B907B61FF92A58
:1005F000FA2AD92AB201B11FFE2AFF2A1B2BFF308B
:100600002E05A800FF302F05A900FF303005AA00F5
:100610007F303105AB002B082A0429042804031974
:10062000122B132B162BB201B20A1B2B341C192BC5
:100630001A2B1B2B132B320803191F2B202B512B8A
:100640000130B407003003180130B507003003183B
:100650000130B607003003180130B707371C312BC3
:10066000322B512B3408A8003508A9003608AA00FF
:100670003708AB000130AC002B0DAB0CAA0CA90C59
:10068000A80CAC0B3C2B2B08B7002A08B600290895
:10069000B5002808B4000130B8070318B90A0030C3
:1006A000B9073908803AFF0080307F02031D5A2BBA
:1006B000FF303802031C5D2B5E2B692B7F308312C9
:1006C0000313B7008030B6000030B5000030B4002E
:1006D0009E2B831203133908803AFF0080307F027B
:1006E000031D742B013038020318772B782B842BD1
:1006F000003083120313B7000030B6000030B5009D
:100700000030B400AD019E2B831203133808A800FB
:100710002808B300FF30B405FF30B5057F30B605BB
:100720000030B705331C952B962B972BB617330843
:10073000A8000310280CA9002908B7002D08A8005C
:100740002808B7043708A3003608A2003508A1001E
:100750003408A0000800831603138601870183165E
:100760000317880189013030831603138600303067
:100770008312031386008316031389010A168A1154
:10078000CE220A128A110A168A11E1260A128A1149
:100790000A168A1153220A128A110A168A11F8229D
:1007A0000A128A110A168A1189220A128A111A302B
:1007B00083120313E000F730DF00DF0BDD2BE00BCB
:1007C000DD2BE22B143083120313DF005F08F200ED
:1007D0001030E0006008F3004030E1006108F400F0
:1007E00000300A168A1105240A128A112230831257
:1007F0000313DF005F08F2000430E0006008F3003C
:100800001830E1006108F40001300A168A112F2423
:100810000A128A1183160313D201D3010A168A1110
:1008200089220A128A118316031352085304031DE6
:100830001A2C1B2C672CA03083120313A00000304D
:10084000A1009930DF005F08A2002430A3008030AF
:10085000A4000A128A1545250A128A11831203136D
:10086000A001A030A1000030A20000300A168A11B9
:100870005A240A128A11023083120313E100043051
:10088000E000B930DF00DF0B432CE00B432CE10B21
:10089000432C4A2C8312031389194F2C502C9B2F65
:1008A000861A532C542C9B2F8919572C582C5C2CAE
:1008B000861E5B2C5C2C542C831603135208013EBD
:1008C000D20053080318013E003ED3009B2F520371
:1008D0005304031D6C2C6D2C922E00300A168A11C5
:1008E000F8240A128A110A168A116E220A128A1133
:1008F000831603135E1F7D2C7E2C1C2DDE1E812C87
:10090000822C932C0D3083120313DF005F08A000AC
:100910009630A1008030A20001300A168A115A24B4
:100920000A128A11A32C0D3083120313DF005F0813
:10093000A0009330A1008030A20001300A168A1175
:100940005A240A128A111F30831603135E05DE0033
:1009500000305F05DF00C23083120313A0000130B6
:10096000A1006F30DF005F08A20083160313630845
:1009700083120313A4008316031362088312031364
:10098000A3000A128A1545250A128A11B83083126B
:100990000313A0000130A1006430DF005F08A20053
:1009A00083160313610883120313A4008316031331
:1009B000600883120313A3000A128A1545250A1240
:1009C0008A11AE3083120313A0000130A100603001
:1009D000DF005F08A200831603135F08831203136E
:1009E000A400831603135E0883120313A3000A12E4
:1009F0008A1545250A128A1183120313A001AE300D
:100A0000A1000130A20000300A168A115A240A12ED
:100A10008A11B830F7000130F8000A168A117425DF
:100A20000A128A11C230F7000130F8000A168A1142
:100A300074250A128A11812D3F305E05DE000030D8
:100A40005F05DF00C23083120313A0000130A10054
:100A50006F30DF005F08A200831603136308831260
:100A60000313A40083160313620883120313A30065
:100A70000A128A1545250A128A11B8308312031307
:100A8000A0000130A1006430DF005F08A2008316DF
:100A90000313610883120313A40083160313600871
:100AA00083120313A3000A128A1545250A128A111C
:100AB000AE3083120313A0000130A1006030DF00CC
:100AC0005F08A200831603135F0883120313A400B8
:100AD000831603135E0883120313A3000A128A15F8
:100AE00045250A128A1183120313A001AE30A1001A
:100AF0000130A20000300A168A115A240A128A1103
:100B0000092D03300A168A11B6250A128A110A160F
:100B10008A116E220A128A11A43083120313A000D4
:100B20000130A1005830DF005F08A20083160313D4
:100B30005B0883120313A400831603135A0883125D
:100B40000313A3000A128A1545250A128A119A3046
:100B500083120313A0000130A1005C30DF005F08A6
:100B6000A20083160313590883120313A4008316EB
:100B70000313580883120313A3000A128A1545258C
:100B80000A128A11903083120313A0000130A100D1
:100B90006F30DF005F08A20083160313570883122B
:100BA0000313A40083160313560883120313A30030
:100BB0000A128A1545250A128A1183120313A0010D
:100BC000A430A1000130A20002300A168A115A2472
:100BD0000A128A119A30F7000130F8000A168A11B9
:100BE00074250A128A119030F7000130F8000A16B5
:100BF0008A1174250A128A114D2E8330F700803035
:100C0000F8000A168A1174250A128A11742E7F3090
:100C1000F7008030F8000A168A1174250A128A112A
:100C2000742E7730F7008030F8000A168A11742588
:100C30000A128A11742E7330F7008030F8000A16F9
:100C40008A1174250A128A11742E8B30F7008030B5
:100C5000F8000A168A1174250A128A11742E7B3044
:100C6000F7008030F8000A168A1174250A128A11DA
:100C7000742E8730F7008030F8000A168A11742528
:100C80000A128A11742E8F30F7008030F8000A168D
:100C90008A1174250A128A11742E831603135C08B4
:100CA000CC3E84008317000883120313DF00E001A9
:100CB0006008003A03195D2E432E5F08463A031977
:100CC0002F2E0B3A0319072E1E3A0319FD2D073A52
:100CD0000319112E033A03191B2E243A0319392E36
:100CE000073A0319252E432E1A3083120313E0000E
:100CF000F730DF00DF0B7A2EE00B7A2E7F2E831287
:100D000003138919842E852E9B2F861A882E892EEF
:100D10009B2F89198C2E8D2E5C2C861E902E912E49
:100D2000892E5C2C023052065304031D982E992EF6
:100D3000D42E831603178815C030831203139F0423
:100D40001F08C3390C389F00831603139F121F120C
:100D50009F17831203130C13831603130C178312AC
:100D600003131F140A168A1168270A128A110A121D
:100D70008A15DA210A128A110A168A1107260A121E
:100D80008A11831203138919C62EC72E9B2F861A28
:100D9000CA2ECB2E9B2F8919CE2ECF2E5C2C861ED1
:100DA000D22ED32ECB2E5C2C033052065304031DBF
:100DB000DA2EDB2E292F0A128A15AD200A128A118B
:100DC000B03083120313A0000030A1004F30DF00C9
:100DD0005F08A200831603136A0883120313E0005E
:100DE000E1016008A3006108A4000A128A154525E4
:100DF0000A128A1183120313A001B030A10000303F
:100E0000A20000300A168A115A240A128A110230EE
:100E100083120313E1000430E000B930DF00DF0B80
:100E20000F2FE00B0F2FE10B0F2F162F8312031341
:100E300089191B2F1C2F9B2F861A1F2F202F9B2FAA
:100E40008919232F242F5C2C861E272F282F202F33
:100E50005C2C043052065304031D2F2F302F9B2F80
:100E60000A168A1136250A128A11003083120313DA
:100E7000DF000430E00083160313660883120313B7
:100E80005F0283160313D0006708031C670A8312EE
:100E90000313600283160313D100C03083120313BF
:100EA000A0000030A1004630DF005F08A2008316DA
:100EB0000313510883120313A4008316031350086D
:100EC00083120313A3000A128A1545250A128A11F8
:100ED00083120313A001C030A1000030A200003033
:100EE0000A168A115A240A128A1102308312031335
:100EF000E1000430E000B930DF00DF0B7D2FE00BB4
:100F00007D2FE10B7D2F842F83160313500883124E
:100F10000313950089198D2F8E2F9B2F861A912FE1
:100F2000922F9B2F8919952F962F5C2C861E992F17
:100F30009A2F922F5C2C1A3083120313E000F730A3
:100F4000DF00DF0BA12FE00BA12FA62F83160313C9
:100F50005308803AFF0080307F02031DB12F053017
:100F60005202031CB42FB52F0E2C0A2C0A128A1120
:100F700000288317D330FD001230FE005730FF00E9
:100F8000CC3084000A168A11AB220A128A1183130C
:100F9000EB30FD001230FE005030FF00E8308400DE
:100FA0000A168A11AB220A128A117030FD00003035
:100FB000FE000330FF006D3084000A168A11AB2258
:100FC0000A128A11831790308400CC300A168A11D5
:100FD00066220A128A118313D4308400E8300A167C
:100FE0008A1166220A128A11623084006D300A1654
:100FF0008A1166220A128A1183010A128A11AB2B06
:10100000FF1B0A2883137F1883170008840A03191B
:10101000FF0A080008308A000408840A82070034A6
:10102000013400340A34003464340034E8340334C6
:1010300010342734013400341034003400340134C7
:1010400000341034303431343234333434343534C1
:101050003634373438343934613462346334643488
:10106000653466340034483465346C346C346F3421
:101070002034543468346534723465340034543464
:1010800065346D3470343A342534333464342A345E
:1010900043340034543465346D3470343A34253478
:1010A000333464342A3446340034503468346F3472
:1010B00074346F343A342534643400344C34693435
:1010C0006734683474343A34253464340034433437
:1010D00061346C343A34253478342D34003454344B
:1010E00069346D343A34253478343A340034283451
:1010F0006E3475346C346C342934003425347834CF
:101100002034003457346534643400345434753436
:101110006534003446347234693400344D346F34ED
:101120006E340034533475346E34003453346134C7
:1011300074340034543468347534003449346E34B3
:101140007634003441344D34003450344D3400345E
:0611500025347334003465
:10115A0083120313060D060D0139F000F101700820
:10116A00E2007108E300831603136A08831203136B
:10117A009500060D060D0139F000F10163087106AC
:10118A00031DC928620870060319CC28CD28152921
:10119A00861FD028D1281529861BD428D6280130A5
:1011AA00D7280030F0000618DB28DD280130DE28B9
:1011BA00003070060319E228E328F4288316031383
:1011CA006A080319E928EA28F4286A08F63EF000B2
:1011DA007008EA006A08831203139500152983121E
:1011EA00861BF828FA280130FB280030F000061880
:1011FA00FF2801290130022900307006031D062943
:10120A00072915296430831603136A0203180E2965
:10121A000F2915296A080A3EF0007008EA00EF282B
:10122A008312060D060D0139F000F1017008E20083
:10123A007108E3000800F80078080319252926290F
:10124A003A29F31F29292A293A297009FA0071092A
:10125A00FB007209FC007309FD00FA0A0319FB0A74
:10126A000319FC0A0319FD0A42297308FD007208D2
:10127A00FC007108FB007008FA007308720471041C
:10128A007004031D49294A2953290030F30000300C
:10129A00F2000030F1000030F000D9299630F40055
:1012AA007408F90065290130F4007408F90701305F
:1012BA000310FD0CFC0CFB0CFA0CFF3E031D5D2910
:1012CA00FE307D05031D6A296B29582987290130BB
:1012DA00F4007408F9070130FA07003003180130E6
:1012EA00FB07003003180130FC07003003180130F7
:1012FA00FD0701300310FD0CFC0CFB0CFA0CFF3E41
:10130A00031D7F29FF307D05031D8C298D296C293A
:10131A0099290130F9020130F4000310FA0DFB0D8E
:10132A00FC0DFD0DF40B9229FC1B9C299D29A32978
:10133A00023079020318A229A3298E297918A6292D
:10134A00A729AF29FF30FA05FF30FB057F30FC05DE
:10135A00FF30FD050310F90C7908F400F501F601D8
:10136A00F70118300310F40DF50DF60DF70DFF3ED9
:10137A00031DB7297408FA047508FB047608FC04EF
:10138A007708FD0478080319CB29CC29D129F31F42
:10139A00CF29D029D129FD177D08F3007C08F20056
:1013AA007B08F1007A08F0000800831203139F14E7
:1013BA009F18E029E129DD29EB01EC011E08D9007B
:1013CA00DA015908EB005A08EC006B08DA00D90177
:1013DA005908EB005A08EC006B08831603131E0425
:1013EA0083120313D9006C08DA005908EB005A0873
:1013FA00EC006B08F0006C08F100F201F301003018
:10140A000A128A1520210A128A15730883120313F5
:10141A00A7007208A6007108A5007008A4003E3053
:10142A00A300A730A2001E30A100B830A0000A1203
:10143A008A114A200A128A15831203132308C1004B
:10144A002208C0002108BF002008BE00C230BD002B
:10145A008630BC000030BB000030BA000A128A1580
:10146A00BD220A128A15831203133D08D1003C08D3
:10147A00D0003B08CF003A08CE000A168A1165262A
:10148A000A128A15831203134F08E7004E08E60072
:10149A000C136B08F0006C08F100F201F301003044
:1014AA000A128A1520210A128A1573088312031355
:1014BA00A7007208A6007108A5007008A4003E30B3
:1014CA00A300A730A2001E30A100B830A0000A1263
:1014DA008A114A200A128A15831203132308C100AB
:1014EA002208C0002108BF002008BE00C230BD008B
:1014FA008630BC000030BB000030BA000A128A15E0
:10150A00BD220A128A15831203133D08DE003C0825
:10151A00DD003B08DC003A08DB005E08C1005D081C
:10152A00C0005C08BF005B08BE004230BD008030CE
:10153A00BC000030BB000030BA000A128A15BD2276
:10154A000A128A15831203133D08D1003C08D00001
:10155A003B08CF003A08CE000A168A1165260A12FD
:10156A008A15831203134F08E7004E08E6000800A5
:10157A00831203133D088039C2004208CA003D089D
:10158A00C2004207C3004308CC00BC1FCD2ACE2AA2
:10159A00CF2A4C144C080319D32AD42AE42A4C0A19
:1015AA00031DD82AD92AE12A0030BD000030BC0028
:1015BA000030BB000030BA00BC17BD01EC2A003075
:1015CA00BD000030BC000030BB000030BA0041084A
:1015DA008039C2004208CB004B084A060319F62A92
:1015EA00F72AF82A4A174108C2004207C3004308EB
:1015FA00CB00C01F012B022B032B4B144B080319E2
:10160A00072B082B182B4B0A031D0C2B0D2B152B04
:10161A000030C1000030C0000030BF000030BE0002
:10162A00C017C101202B0030C1000030C0000030BB
:10163A00BF000030BE004C084B020318252B262B96
:10164A006A2B4A1F292B2A2B2E2B8030C2004208D4
:10165A00CA064C08C2004208CD004B08C200420824
:10166A00CC004D08C2004208CB003A08C20042082A
:10167A00CD003E08C2004208BA004D08C200420826
:10168A00BE003B08C2004208CD003F08C200420823
:10169A00BB004D08C2004208BF003C08C200420815
:1016AA00CD004008C2004208BC004D08C2004208F2
:1016BA00C0003D08C2004208CD004108C2004208ED
:1016CA00BD004D08C2004208C100CD014B08C2004E
:1016DA00C3014308C5004C084202C400031CC503E9
:1016EA004508803AFF0080307F02031D7E2B1A30A6
:1016FA004402031C812B822BBF2B831203133D0848
:10170A003C043B043A04031D8B2B8D2B01308E2B9A
:10171A000030C2004208CD000030BD000030BC00DD
:10172A000030BB000030BA004B08C2004208CC00AF
:10173A00C72B4D1CA12BA22BAB2B4D08C2000310AB
:10174A00420C0138C3004308CD00AD2B0310CD0C69
:10175A003A1CB02BB12BB22BCD170130C2003D0D74
:10176A00BD0CBC0CBB0CBA0CC20BB42B0130C200B2
:10177A004208CC07831203134B084C02031CC62BE6
:10178A00C72B9E2B4A1BCA2BCB2B162C4C08031D8E
:10179A00CF2BD02BD92B0030BD000030BC0000303D
:1017AA00BB000030BA00442D3E08BA073F080311B7
:1017BA000318013E0319E22BBB0740080311031863
:1017CA00013E0319E92BBC07410803110318013E26
:1017DA000319F02BBD073D1CF32BF42BCA2C4D1C0F
:1017EA00F72BF82B012C4D08C2000310420C0138CC
:1017FA00C3004308CD00032C0310CD0C3A1C062C61
:10180A00072C082CCD170130C2003D0DBD0CBC0CB5
:10181A00BB0CBA0CC20B0A2C0130C2004208CC071E
:10182A00CA2C3D08803AFF004108803A7F02031D16
:10183A00282C40083C02031D282C3F083B02031DAC
:10184A00282C3E083A0203182B2C2C2C842CFF300F
:10185A00C200FF30C300FF30C400FF30C5003E089D
:10186A00C6003F08C7004008C8004108C9003A0836
:10187A00C6023B08031C3B0F432C442CC7023C08FE
:10188A00031C3C0F492C4A2CC8023D08031C3D0F7F
:10189A004F2C502CC9024608C20747080318470FA5
:1018AA00572C582CC30748080318480F5D2C5E2C88
:1018BA00C40749080318490AC5074508BD00440872
:1018CA00BC004308BB004208BA008030C20042088C
:1018DA00CA06CD09CD0A4D08031D742C752C922C0D
:1018EA000130BA07003003180130BB070030031873
:1018FA000130BC07003003180130BD07922C3E08A6
:10190A00BA023F08031C3F0FBB024008031C400FEA
:10191A00BC024108031C410FBD023D083C043B04C4
:10192A003A04031D992C9A2CC62C4D08031D9E2C93
:10193A009F2CC62C0030BD000030BC000030BB001C
:10194A000030BA00442D0130C2000310BA0DBB0D9D
:10195A00BC0DBD0DC20BAA2CCD1FB42CB52CB62CB8
:10196A003A144D1CB92CBA2CBD2C0314CD0DBF2C26
:10197A000310CD0D4C080319C32CC42CC62C0130FE
:10198A00CC02BC1FC92CCA2CA82CCB01CD1FCE2C33
:10199A00CF2CDD2C4D087F390319D42CD52CD82C0B
:1019AA00CB01CB0ADD2C3A1CDB2CDC2CDD2CD52C14
:1019BA004B080319E12CE22C162D0130BA0700302E
:1019CA0003180130BB07003003180130BC07003090
:1019DA0003180130BD073D1CF32CF42C162D3A08D0
:1019EA00C2003B08C3003C08C4003D08C5000130E2
:1019FA00C600450DC50CC40CC30CC20CC60BFE2C8C
:101A0A004508BD004408BC004308BB004208BA00B0
:101A1A004C0A0319112D122D162D0130C20042084D
:101A2A00CC074C0A03191A2D1B2D202D4C08031D17
:101A3A001F2D202D2E2D0030BD000030BC0000309F
:101A4A00BB000030BA004C08031D2C2D2D2D2E2D65
:101A5A00CA014C1C312D322D342DBC17382D7F3044
:101A6A00C2004208BC054C08C2000310420CC30065
:101A7A004308BD00CA1F422D432D442DBD1708003F
:101A8A00233083120313A5002508AC00E72F253065
:101A9A0034060319512D522D622D3408A500200851
:101AAA0084008317211C8313250880000130A007B6
:101ABA000318A10A0030A107E72FB201B301AF0151
:101ACA00220884000A128A150A200A128A150A169E
:101ADA008A1195220A128A15031C742D752D472E18
:101AEA0083120313B201B3010A30F0000030F1008F
:101AFA00831203133308F3003208F2000A168A111C
:101B0A0094230A128A15710883120313B30070080A
:101B1A00B200220884000A128A150A200A128A15BB
:101B2A00D03EA500FF3003180030A6002508B207F2
:101B3A000318B30A2608B3070130A5002508A2072F
:101B4A00220884000A128A150A200A128A150A161D
:101B5A008A1195220A128A150318B42DB52D792DEA
:101B6A00472EAF176C2E2C08840083130008AA0096
:101B7A00840A00088403AB000230A5002508AC07DC
:101B8A002A082B04031DCA2DCB2DCF2D6830AA009D
:101B9A008030AB00AD01AE01D82D0130AD0703187E
:101BAA00AE0A0030AE072D082A0784002B08031856
:101BBA002B0AFF000A128A1500200A128A15003A17
:101BCA00031DE82DE92DD22D33082E02031DEF2D1A
:101BDA0032082D020318F22DF32DFA2D2D08B20228
:101BEA002E08031CB303B3020C2EB201B3010C2E50
:101BFA002030A500200884008317211C83132508A0
:101C0A0080000130A0070318A10A0030A107FF30A5
:101C1A00B2070318B30AFF30B307320A031D192E9D
:101C2A00330A031D192E1A2EFD2D382E2B08FF00FC
:101C3A002A0884000A128A1500200A128A15A500A9
:101C4A00200884008317211C831325088000013093
:101C5A00AA070318AB0A0030AB070130A007031824
:101C6A00A10A0030A1070130AD020030031CAE0307
:101C7A00AE022D0A031D452E2E0A031D452E462EA1
:101C8A001B2EE72F013083120313A207FF3022070E
:101C9A0084000A128A150A200A128A15B400A500BD
:101CAA00A6012608003A03195B2EE72F2508003AF9
:101CBA000319F92F643A03196C2E0D3A03196C2E85
:101CCA001A3A0319B82D0B3A0319B62DE72FAF1B91
:101CDA006F2E702E8A2E2C08840083130008B00001
:101CEA00840A0008B1000230A5002508AC07B11F1C
:101CFA007F2E802EE92E0330A5002508AF04B009F7
:101D0A00B109B00A0319B10AE92E2C088400831319
:101D1A000008B000840A0008B1000230A5002508B6
:101D2A00AC07E92EB401B40A3408A5002507013E20
:101D3A0084000A128A150A200A128A15A6000A12B3
:101D4A008A150A200A128A15A70027083102031DDC
:101D5A00B02E260830020318B32EB42EB52EFA2E52
:101D6A000130A5002508B40705303406031DBE2E30
:101D7A00BF2E992EFA2EB401B40A3408A5002507FD
:101D8A000B3E84000A128A150A200A128A15A60036
:101D9A000A128A150A200A128A15A7002708310290
:101DAA00031DD92E260830020318DC2EDD2EDE2E66
:101DBA00FA2E0130A5002508B40704303406031DA5
:101DCA00E72EE82EC22EFA2E2F088039A500A6018A
:101DDA002608003A0319F22EFA2E2508003A0319AA
:101DEA00972E803A0319C02EFA2E320833040319AB
:101DFA00FF2E002F0C2F2F0803390319052F062F4A
:101E0A000C2FFF30B2070318B30AFF30B3073308A9
:101E1A00803A803C031D132F320834020318162F10
:101E2A00172F232F831203133408A500A6012508B0
:101E3A00B2022608031CB303B302272F831203132B
:101E4A00B201B3013208330403192C2F2D2F482F66
:101E5A002030A500200884008317211C831325083D
:101E6A0080000130A0070318A10A0030A107FF3043
:101E7A00B2070318B30AFF30B30732083304031D4D
:101E8A00472F482F2D2F2F08033903194D2F4E2F77
:101E9A005D2F2D30A500200884008317211C831391
:101EAA00250880000130A0070318A10A0030A10705
:101EBA003408A5002508A900DE2F0A30F8000030F2
:101ECA00F9002908A5002507013E84000A128A158F
:101EDA000A200A128A15F0000A128A150A200A1222
:101EEA008A15F1003108F3003008F2000A128A114B
:101EFA0006200A128A157108FB007008FA000A16F1
:101F0A008A11BE240A128A157808303E83120313F6
:101F1A00A6002608B400CF2F2908A50025070B3EE6
:101F2A0084000A128A150A200A128A15F0000A1277
:101F3A008A150A200A128A15F1003108F3003008BE
:101F4A00F2000A128A1106200A128A1570080F393D
:101F5A0083120313A6002608A8002808133E84004B
:101F6A000A128A150A200A128A15A5002508B40041
:101F7A00CF2F2F088039A500A6012608003A031999
:101F8A00C72FCF2F2508003A0319622F803A031969
:101F9A00912FCF2F3408A500200884008317211C15
:101FAA008313250880000130A0070318A10A003016
:101FBA00A107FF30A5002508A907290A031DE62F56
:101FCA00E72FBE2F0130A207FF30220784000A1232
:101FDA008A150A200A128A15A5002508B4003408B1
:101FEA00031DF82FF92F4C2D200884008317211C7C
:061FFA00831380010800C2
:1024A0000534063414348316031306080800533425
:1024B0004D34543457347434463473348312031314
:1024C0008C1D632A642A5E2A8C1108006400800136
:1024D000840A0406031900340406672A83160313CA
:1024E00011151119742A752A712A14080800831607
:1024F000031391121116111A7E2A7F2A7B2A0800D3
:102500008316031391161116111A872A882A842A12
:10251000080001300A168A115B230A168A111A3044
:10252000F700F70B912A00000800F100F0013A30A3
:10253000710203189C2A9D2AA52A30307102031CBF
:10254000A22AA32AA52AF001F00A700C08007E082E
:102550008A007F0882000A168A11A7220A168A11A9
:102560008000840A04087D0603190034FF0A031959
:10257000FE0AAB2AF00070088312031393000A16B8
:102580008A115E220A168A1183160313111FC92AA3
:10259000CA2ACC2A0130CD2A023008008316031340
:1025A00087150716503094002830831203139400C7
:1025B000831603139101133093008C1583120313B8
:1025C0008C110800F2004E300A168A110F230A16E9
:1025D0008A117208831203136F040A168A11BA2231
:1025E0000A168A110A168A116E220A168A11080022
:1025F0000430831203139200653083160313920094
:102600000614861586179D141D159D153F308312DF
:10261000031397051708F0390C3897000800F100EC
:102620008316031311141118162B172B132B831257
:1026300003138C118316031394191F2B202B212BAA
:10264000272B71080A168A11BA220A168A11080065
:10265000F10083160313911491182F2B302B2C2B80
:10266000831203138C11831603139419382B392BFF
:102670003A2B402B71080A168A11BA220A168A11BF
:102680000800F400831203136A08F3007308F404CB
:10269000740804380A168A11E2220A168A1174088C
:1026A000FB390A168A11E2220A168A112130F30038
:1026B000F30B582B0800F60083120313EA01760887
:1026C000F0390A168A1141230A168A117608F50094
:1026D00003300310F50DFF3E031D692B0310750D2C
:1026E000F0390A168A1141230A168A110800F600E9
:1026F00083120313EA01EA0A7608F0390A168A11EE
:1027000041230A168A117608F50003300310F50DEF
:10271000FF3E031D862B0310750DF0390A168A1132
:1027200041230A168A110800F401F501701C992B47
:102730009A2BA02B7208F4070318F50A7308F50703
:1027400001300310F20DF30DFF3E031DA12B0130EC
:102750000310F10CF00CFF3E031DA82B7008710450
:10276000031DB32BB42B962B7508F1007408F000F1
:102770000800F100831603139115141CC02BC12B04
:10278000BD2B831203131308F0007008F2007108C8
:10279000031DCB2BCC2BD22B0A168A1177220A16BB
:1027A0008A11D72B0A168A1180220A168A110A1654
:1027B0008A115E220A168A1172080800F800F401D4
:1027C000F5017008F200F3017208F6007308F700D3
:1027D000781CEB2BEC2BF22B7608F4070318F50A88
:1027E0007708F50701300310F60DF70DFF3E031DC6
:1027F000F32B0310F80C7808031DFF2B002CE82B9B
:102800007508F1007408F0000800F60073087404FD
:10281000F5007508F300D0300A168A110F230A1646
:102820008A1100300A168A11BA220A168A1176080D
:102830000A168A11BA220A168A1172080A168A1111
:10284000BA220A168A1173080A168A11BA220A16BF
:102850008A110A168A116E220A168A110800F500DA
:10286000D0300A168A110F230A168A1103300A166D
:102870008A11BA220A168A1175080A168A11BA2212
:102880000A168A1172080A168A11BA220A168A11C1
:1028900073080A168A11BA220A168A1174080A16CF
:1028A0008A11BA220A168A110A168A116E220A168B
:1028B0008A11080083120313A400023024020318B3
:1028C000622C632C702C20080F398038A300230859
:1028D000A50025080A168A115B230A168A117C2C8A
:1028E00020080F39C038A3002308A50025080A16C0
:1028F0008A115B230A168A11831203132108F70039
:102900002208F8000A168A1174250A168A1108008E
:10291000FA00AA2C7708BF3E0A168A115B230A1612
:102920008A11BD2C7708933E0A168A115B230A167A
:102930008A11BD2C7708D33E0A168A115B230A162A
:102940008A11BD2C77087F3E0A168A115B230A166E
:102950008A11BD2C7A08F800F9017908003A0319A8
:10296000B22CA22C7808023A03198A2C013A0319D6
:10297000922C073A03199A2CA22C080078087904A3
:102980000319C32CC42CF32CFD01FD0AD22C0130F9
:102990000310F80DF90DFF3E031DC82C0130FC009B
:1029A0007C08FD07F91FD52CD62CC72C79087B0293
:1029B000031DDC2C78087A02031CDF2CE02CE62CAB
:1029C0007808FA027908031CFB03FB0201300310AC
:1029D000F90CF80CFF3E031DE72C0130FD02031D2E
:1029E000F22CF32CD62C7B08F9007A08F8000800AA
:1029F000F500D0300A168A110F230A168A117508BD
:102A00000A168A11BA220A168A11D1300A168A11B8
:102A100028230A168A1100300A168A11B9230A16C9
:102A20008A11F300F401730883160313E20074089B
:102A3000E30000300A168A11B9230A168A11F3003E
:102A4000F401730883160313E0007408E1000130F9
:102A50000A168A11B9230A168A11F300F4017308C1
:102A600083160313DE007408DF000800C0308312F1
:102A700003139F041F08C33934389F0083160313C0
:102A80009F121F129F17831203130C138316031335
:102A90000C17831203131F149F149F18502D512DD0
:102AA0004D2D83160313E601E701831203131E085D
:102AB000F000F101700883160313E6007108E700C7
:102AC0006608F100F0017008E6007108E70066088A
:102AD0001E04F0006708F1007008E6007108E700C6
:102AE000831203130C130800FC01FD01992D7C08CF
:102AF0007707FA007808F9000318F90AFC1F812DFE
:102B0000F9037908FB007B0883120313FF007A089E
:102B100084000A128A1500200A168A110A168A11E0
:102B200077230A168A110130FC070318FD0A0030CA
:102B3000FD077C087707FA007808F9000318F90AFE
:102B4000FC1FA32DF9037908FB007B0883120313F4
:102B5000FF007A0884000A128A1500200A168A11DA
:102B6000003A031DB42DB52D772D0800F500D030A7
:102B70000A168A110F230A168A1175080A168A1175
:102B8000BA220A168A11D1300A168A1128230A1687
:102B90008A1100300A168A11B9230A168A11F30025
:102BA000F401730883160313DC007408DD000030A1
:102BB0000A168A11B9230A168A11F300F401730860
:102BC00083160313DA007408DB0000300A168A113A
:102BD000B9230A168A11F300F4017308831603134C
:102BE000D8007408D90001300A168A11B9230A16D0
:102BF0008A11F300F401730883160313D6007408D6
:102C0000D7000A168A116E220A168A110800383077
:102C100083120313A0000030A1003030B500350846
:102C2000A2006908A4006808A3000A128A154525B5
:102C30000A168A11033083120313B6009730B500C9
:102C4000B50B202EB60B202E3830F7000030F800E0
:102C50000A168A1174250A168A113030831203135A
:102C6000B5003508F70032300A168A1188240A1692
:102C70008A11483083120313A0000030A1003B30BA
:102C8000B5003508A2006708A4006608A3000A1270
:102C90008A1545250A168A114830F7000030F800D9
:102CA0000A168A1174250A168A1103308312031337
:102CB000B7000830B6007630B500B50B5D2EB60B08
:102CC0005D2EB70B5D2E0000080003108312031366
:102CD000500D510DD2005208D8005808031D712E16
:102CE000722E7B2E0030D1000030D0000030CF009B
:102CF0000030CE00E02E4E08D2004F08D30050081E
:102D0000D4005108D5001F300310D50CD40CD30CBF
:102D1000D20CFF3E031D842E5208D6005608D70061
:102D2000D017FF30CE05FF30CF05FF30D005003083
:102D3000D1059630D802D81F9E2E9F2EB92E580846
:102D4000803A973E0318A52EA62EA72E722E01308C
:102D50000310D10CD00CCF0CCE0CFF3E031DA82EBF
:102D60000130D2005208D807031DB72EB82EA72E67
:102D7000D02E20305802031CBE2EBF2ECB2E722E1A
:102D80000130D2000310CE0DCF0DD00DD10DD20BDE
:102D9000C22E0130D8025808031DCF2ED02EC02ECF
:102DA00057080319D42ED52EE02ECE09CF09D0090D
:102DB000D109CE0A0319CF0A0319D00A0319D10A7F
:102DC000080000300A168A11E2220A168A114E30D3
:102DD000F800EB30F700F70BEB2EF80BEB2E03307F
:102DE0000A168A115B230A168A110D30F800FB308F
:102DF000F700F70BF92EF80BF92EFE2E03300A160A
:102E00008A115B230A168A110D30F800FB30F70097
:102E1000F70B082FF80B082F0D2F03300A168A1115
:102E20005B230A168A110D30F800FB30F700F70B10
:102E3000172FF80B172F1C2F02300A168A115B234D
:102E40000A168A110D30F800FB30F700F70B262F19
:102E5000F80B262F2B2F28300A168A115B230A160F
:102E60008A118230F800DD30F700F70B352FF80BB0
:102E7000352F3A2F0C300A168A115B230A168A1155
:102E80008230F800DD30F700F70B442FF80B442FA9
:102E9000492F01300A168A115B230A168A118230E3
:102EA000F800DD30F700F70B532FF80B532F582F96
:102EB00006300A168A115B230A168A118230F8003E
:102EC000DD30F700F70B622FF80B622F672F080039
:102ED000831203139F149F186E2F6F2F6B2FEB011C
:102EE000EC011E08D900DA015908EB005A08EC0081
:102EF0006B08DA00D9015908EB005A08EC006B089E
:102F0000831603131E0483120313D9006C08DA001E
:102F10005908EB005A08EC000C136B08F0006C0821
:102F2000F100F201F30100300A128A1520210A167D
:102F30008A11730883120313A7007208A600710890
:102F4000A5007008A4003E30A3003430A200003079
:102F5000A1000030A0000A128A114A200A168A1124
:102F6000831203132308C1002208C0002108BF00F8
:102F70002008BE00C230BD005C30BC000030BB0089
:102F80000030BA000A128A15BD220A168A1183126D
:102F900003133D08DE003C08DD003B08DC003A0876
:102FA000DB005E08C1005D08C0005C08BF005B0874
:102FB000BE004230BD000C30BC000030BB00003011
:102FC000BA000A128A15BD220A168A118312031347
:102FD0003D08D1003C08D0003B08CF003A08CE00A5
:102FE0000A168A1165260A168A11831203134F08DE
:102FF000E9004E08E8000130E4000030E500080078
:08400000FF3FFF3FFF3FFF3FC0
:04400E00D22FFF3F6F
:00000001FF
