:100000000A128A11B82FF100F0013A307102031878
:100010000A280B28132830307102031C10281128DD
:100020001328F001F00A700C080030308316031317
:100030008600831603178801890130308312031369
:1000400086008316031389010A168A1117220A12E1
:100050008A110A168A11DB260A128A110A168A11D7
:100060008F210A128A110A168A1141220A128A1154
:10007000143083120313DF005F08F2001030E00039
:100080006008F3004030E1006108F40000300A1617
:100090008A1134230A128A11223083120313DF00DB
:1000A0005F08F2000430E0006008F3001830E1005F
:1000B0006108F40001300A168A115E230A128A11BF
:1000C00083160313E601E7010130E4000030E50088
:1000D0008316031364036504031D6F2870288F289B
:1000E0000A168A1169250A128A110A168A1197219D
:1000F0000A128A1183120313061A7F288028A62861
:10010000061E832884288028831603136408013E72
:10011000E40065080318013E003EE500A628023011
:1001200064066504031D95289628A6280A168A11D8
:10013000F9230A128A1183120313061AA028A12890
:10014000A628061EA428A528A12884288316031300
:1001500066086704031DAD28AE28FB280A168A111D
:10016000D0210A128A11D43083120313A000003068
:10017000A1008730DF005F08A2002430A300803098
:10018000A4000A128A119C210A128A11D430F700A5
:100190000030F8000A168A1175240A128A110230FA
:1001A00083120313E1000430E000B930DF00DF0BFD
:1001B000D728E00BD728E10BD728DE2883120313BA
:1001C0008919E328E4286529861AE728E82865299B
:1001D0008919EB28EC28F028861EEF28F028E8285B
:1001E000831603136608013EE60067080318013E04
:1001F000003EE700652966036704031D0029012905
:100200001E290A168A11D0210A128A110A128A1589
:1002100080230A128A1183120313891910291129C4
:100220006529861A14291529652989191829192972
:10023000F028861E1C291D291529F0280230660683
:100240006704031D242925296529831603178815AA
:10025000C030831203139F041F08C3390C389F005A
:10026000831603139F121F129F17831203130C137D
:10027000831603130C17831203131F140A168A1113
:10028000D0210A128A110A168A1162270A128A11CB
:100290000A128A1525210A128A110A168A11FB24CC
:1002A0000A128A11831203138919572958296529BB
:1002B000861A5B295C29652989195F296029F0283C
:1002C000861E632964295C29F0281A3083120313DF
:1002D000E000F730DF00DF0B6B29E00B6B297029A2
:1002E000831603136708803AFF0080307F02031DE6
:1002F0007B2903306602031C7E297F29832983160C
:100300000313E601E701831603136508803AFF0033
:1003100080307F02031D8E2902306402031C912964
:1003200092296828013083160313E4000030E500A9
:1003300068280A128A110028233083120313A500AB
:100340002508AC003E2C253034060319A829A9291C
:10035000B9293408A500200884008317211C8313C1
:10036000250880000130A0070318A10A0030A1076A
:100370003E2CB201B301AF01220884000A168A1193
:100380000A200A128A110A128A1103200A128A11FB
:10039000031CCB29CC299E2A83120313B201B3017B
:1003A0000A30F0000030F100831203133308F30029
:1003B0003208F2000A168A11C3220A128A11710841
:1003C00083120313B3007008B200220884000A16D7
:1003D0008A110A200A128A11D03EA500FF300318A4
:1003E0000030A6002508B2070318B30A2608B30791
:1003F0000130A5002508A207220884000A168A11E8
:100400000A200A128A110A128A1103200A128A117A
:1004100003180B2A0C2AD0299E2AAF17C32A2C08AE
:10042000840083130008AA00840A00088403AB0038
:100430000230A5002508AC072A082B04031D212A39
:10044000222A262A5630AA008030AB00AD01AE0128
:100450002F2A0130AD070318AE0A0030AE072D0871
:100460002A0784002B0803182B0AFF000A168A119A
:1004700000200A128A11003A031D3F2A402A292A25
:1004800033082E02031D462A32082D020318492A7A
:100490004A2A512A2D08B2022E08031CB303B302C4
:1004A000632AB201B301632A2030A500200884002A
:1004B0008317211C8313250880000130A00703182F
:1004C000A10A0030A107FF30B2070318B30AFF30BA
:1004D000B307320A031D702A330A031D702A712ADA
:1004E000542A8F2A2B08FF002A0884000A168A1132
:1004F00000200A128A11A500200884008317211CFD
:100500008313250880000130AA070318AB0A0030C6
:10051000AB070130A0070318A10A0030A107013082
:10052000AD020030031CAE03AE022D0A031D9C2A4F
:100530002E0A031D9C2A9D2A722A3E2C013083120A
:100540000313A207FF30220784000A168A110A202B
:100550000A128A11B400A500A6012608003A031960
:10056000B22A3E2C2508003A0319502C643A03198C
:10057000C32A0D3A0319C32A1A3A03190F2A0B3A50
:1005800003190D2A3E2CAF1BC62AC72AE12A2C08C4
:10059000840083130008B000840A0008B100023010
:1005A000A5002508AC07B11FD62AD72A402B033057
:1005B000A5002508AF04B009B109B00A0319B10AB2
:1005C000402B2C08840083130008B000840A000824
:1005D000B1000230A5002508AC07402BB401B40AD5
:1005E0003408A5002507013E84000A168A110A2056
:1005F0000A128A11A6000A168A110A200A128A1102
:10060000A70027083102031D072B26083002031814
:100610000A2B0B2B0C2B512B0130A5002508B407FE
:1006200005303406031D152B162BF02A512BB4016F
:10063000B40A3408A50025070B3E84000A168A1167
:100640000A200A128A11A6000A168A110A200A1222
:100650008A11A70027083102031D302B260830021B
:100660000318332B342B352B512B0130A5002508D3
:10067000B40704303406031D3E2B3F2B192B512B9E
:100680002F088039A500A6012608003A0319492B36
:10069000512B2508003A0319EE2A803A0319172B2B
:1006A000512B320833040319562B572B632B2F0879
:1006B000033903195C2B5D2B632BFF30B207031842
:1006C000B30AFF30B3073308803A803C031D6A2B1E
:1006D0003208340203186D2B6E2B7A2B831203130E
:1006E0003408A500A6012508B2022608031CB3039E
:1006F000B3027E2B83120313B201B3013208330419
:100700000319832B842B9F2B2030A5002008840005
:100710008317211C8313250880000130A0070318CC
:10072000A10A0030A107FF30B2070318B30AFF3057
:10073000B30732083304031D9E2B9F2B842B2F08F5
:1007400003390319A42BA52BB42B2D30A5002008A9
:1007500084008317211C8313250880000130A00723
:100760000318A10A0030A1073408A5002508A90034
:10077000352C0A30F8000030F9002908A5002507BB
:10078000013E84000A168A110A200A128A11F0001A
:100790000A168A110A200A128A11F1003108F300A0
:1007A0003008F2000A168A11B7240A128A11710859
:1007B000FB007008FA000A168A11BF230A128A1178
:1007C0007808303E83120313A6002608B400262CB6
:1007D0002908A50025070B3E84000A168A110A2065
:1007E0000A128A11F0000A168A110A200A128A11C6
:1007F000F1003108F3003008F2000A168A11B7241C
:100800000A128A1170080F3983120313A6002608F2
:10081000A8002808133E84000A168A110A200A122A
:100820008A11A5002508B400262C2F088039A500C0
:10083000A6012608003A03191E2C262C2508003A8A
:100840000319B92B803A0319E82B262C3408A5008C
:10085000200884008317211C8313250880000130A1
:10086000A0070318A10A0030A107FF30A500250842
:10087000A907290A031D3D2C3E2C152C0130A20787
:10088000FF30220784000A168A110A200A128A11F0
:10089000A5002508B4003408031D4F2C502CA329B3
:1008A000200884008317211C831380010800831211
:1008B000031323088039A8002808AD002308A800E6
:1008C0002807A9002908B300A21F672C682C692CEF
:1008D0003314330803196D2C6E2C7D2C330A031D41
:1008E000722C732C7B2C0030A3000030A20000304F
:1008F000A1000030A000A217852C0030A30000301A
:10090000A2000030A1000030A00027088039A80014
:100910002808AD062708A8002807A9002908B20062
:10092000A61F932C942C952C321432080319992C61
:100930009A2CA92C320A031D9E2C9F2CA72C003028
:10094000A7000030A6000030A5000030A400A617C4
:10095000B12C0030A7000030A6000030A500003008
:10096000A40032080319B52CB62CBB2C3308031D88
:10097000BA2CBB2CC42C0030A3000030A2000030E5
:10098000A1000030A000B72F2008A8002808F00020
:1009900026080A168A110D230A128A117108831279
:1009A0000313B9007008B8003808A800A901AA010B
:1009B000AB012B08B1002A08B0002908AF002808B5
:1009C000AE003908A800A901AA01AB012B08B700A5
:1009D0002A08B6002908B5002808B4002108A80094
:1009E0002808F00025080A168A110D230A128A1118
:1009F000710883120313B9007008B8003808A80002
:100A0000A901AA01AB012808AE07290803110318A0
:100A1000013E03190C2DAF072A0803110318013EEC
:100A20000319132DB0072B0803110318013E0319F6
:100A30001A2DB1073908A800A901AA01AB0128089D
:100A4000B407290803110318013E0319282DB5071F
:100A50002A0803110318013E03192F2DB6072B088E
:100A600003110318013E0319362DB7072208A80009
:100A70002808F00024080A168A110D230A128A1188
:100A8000710883120313B9007008B8003808A80071
:100A9000A901AA01AB012808AE0729080311031810
:100AA000013E0319542DAF072A0803110318013E14
:100AB00003195B2DB0072B0803110318013E03191E
:100AC000622DB1073908A800A901AA01AB012808C5
:100AD000B407290803110318013E0319702DB50747
:100AE0002A0803110318013E0319772DB6072B08B6
:100AF00003110318013E03197E2DB7070830A80023
:100B00000310AE0DAF0DB00DB10DA80B802D210857
:100B1000A8002808F00024080A168A110D230A12DA
:100B20008A11710883120313B9007008B8003808DD
:100B3000A8003908A900AA01AB012808AE072908B6
:100B400003110318013E0319A62DAF072A0803114C
:100B50000318013E0319AD2DB0072B08031103182C
:100B6000013E0319B42DB1072008A8002808F000A1
:100B700025080A168A110D230A128A117108831298
:100B80000313B9007008B8003808A8003908A90094
:100B9000AA01AB012808AE07290803110318013E7A
:100BA0000319D32DAF072A0803110318013E0319B7
:100BB000DA2DB0072B0803110318013E0319E12DAC
:100BC000B1070830A8000310AE0DAF0DB00DB10D88
:100BD000A80BE32D2008A8002808F00024080A1616
:100BE0008A110D230A128A11710883120313B900A6
:100BF0007008B8003808A8003908A900AA01AB019C
:100C00002808AE07290803110318013E0319092E0D
:100C1000AF072A0803110318013E0319102EB0076D
:100C20002B0803110318013E0319172EB1072108E1
:100C3000A8002808F00026080A168A110D230A12B7
:100C40008A11710883120313B9007008B8003808BC
:100C5000A8003908A900AA01AB012808B40729088F
:100C600003110318013E0319362EB5072A08031194
:100C70000318013E03193D2EB6072B080311031874
:100C8000013E0319442EB7072208A8002808F000E7
:100C900025080A168A110D230A128A117108831277
:100CA0000313B9007008B8003808A8003908A90073
:100CB000AA01AB012808B407290803110318013E53
:100CC0000319632EB5072A0803110318013E0319FF
:100CD0006A2EB6072B0803110318013E0319712E63
:100CE000B7072208A8002808F00026080A168A116B
:100CF0000D230A128A11710883120313B9007008B8
:100D0000B8003808A8003908A900AA01AB010830CA
:100D10000310A80DA90DAA0DAB0DFF3E031D882ED3
:100D20002808B407290803110318013E0319992E56
:100D3000B5072A0803110318013E0319A02EB607B0
:100D40002B0803110318013E0319A72EB7072E081D
:100D5000A8002F08A9003008AA003108AB001830FD
:100D60000310AB0CAA0CA90CA80CFF3E031DB02E5F
:100D70002808B407290803110318013E0319C12EDE
:100D8000B5072A0803110318013E0319C82EB60738
:100D90002B0803110318013E0319CF2EB7070830A3
:100DA000A8000310AE0DAF0DB00DB10DA80BD12EE4
:100DB00033083207A800A901A90D2808823EB8000F
:100DC00029080318013EFF3EB900032F0130A80097
:100DD0000310B40DB50DB60DB70DA80BE82EB11F5D
:100DE000F22EF32EF42E34140130A8000310AE0DB1
:100DF000AF0DB00DB10DA80BF62EFF30B8070318DC
:100E0000B90AFF30B907B61F062F072FE62EB20129
:100E1000B11F0B2F0C2F282FFF302E05A800FF30FD
:100E20002F05A900FF303005AA007F303105AB0047
:100E30002B082A042904280403191F2F202F232FED
:100E4000B201B20A282F341C262F272F282F202F3B
:100E5000320803192C2F2D2F5E2F0130B4070030DC
:100E600003180130B507003003180130B607003011
:100E700003180130B707371C3E2F3F2F5E2F340871
:100E8000A8003508A9003608AA003708AB000130D1
:100E9000AC002B0DAB0CAA0CA90CA80CAC0B492F69
:100EA0002B08B7002A08B6002908B5002808B400A6
:100EB0000130B8070318B90A0030B9073908803A79
:100EC000FF0080307F02031D672FFF303802031CB4
:100ED0006A2F6B2F762F7F3083120313B700803079
:100EE000B6000030B5000030B400AB2F83120313FE
:100EF0003908803AFF0080307F02031D812F0130C6
:100F000038020318842F852F912F0030831203138A
:100F1000B7000030B6000030B5000030B400AD01BD
:100F2000AB2F831203133808A8002808B300FF3042
:100F3000B405FF30B5057F30B6050030B705331C6A
:100F4000A22FA32FA42FB6173308A8000310280C34
:100F5000A9002908B7002D08A8002808B7043708F9
:100F6000A3003608A2003508A1003408A00008003C
:100F70008317B530FD001130FE009E30FF00AE300B
:100F800084000A168A11E0210A128A1183160313BB
:100F90000A168A118D210A128A11E8000A168A118E
:100FA0008E210A128A11E90083136F30FD0011307F
:100FB000FE009330FF006B3084000A168A11E02196
:100FC0000A128A11831790308400AE300A168A11F3
:100FD000AD210A128A118313A0308400D4300A167E
:100FE0008A11AD210A128A11623084006B300A1610
:100FF0008A11AD210A128A1183010A128A11152859
:10100000F400831203136808F3007308F4047408EF
:1010100004380A168A112B220A128A157408FB3921
:101020000A168A112B220A128A152130F300F30BBB
:1010300017280800F500D0300A168A1158220A1223
:101040008A1575080A168A1103220A128A15D130E8
:101050000A168A1171220A128A1500300A168A119C
:10106000E8220A128A15F300F401730883160313A9
:10107000AC007408AD0000300A168A11E8220A128A
:101080008A15F300F401730883160313AA00740889
:10109000AB0000300A168A11E8220A128A15F30002
:1010A000F401730883160313A8007408A900013023
:1010B0000A168A11E8220A128A15F300F40173084D
:1010C00083160313A6007408A7000A168A11B52117
:1010D0000A128A150800F800780803197028712888
:1010E0008528F31F7428752885287009FA0071096E
:1010F000FB007209FC007309FD00FA0A0319FB0AE0
:101100000319FC0A0319FD0A8D287308FD007208F3
:10111000FC007108FB007008FA0073087204710487
:101120007004031D942895289E280030F300003099
:10113000F2000030F1000030F00024299630F40075
:101140007408F900B0280130F4007408F907013080
:101150000310FD0CFC0CFB0CFA0CFF3E031DA82831
:10116000FE307D05031DB528B628A328D2280130FE
:10117000F4007408F9070130FA0700300318013051
:10118000FB07003003180130FC0700300318013062
:10119000FD0701300310FD0CFC0CFB0CFA0CFF3EAC
:1011A000031DCA28FF307D05031DD728D828B7287E
:1011B000E4280130F9020130F4000310FA0DFB0DB0
:1011C000FC0DFD0DF40BDD28FC1BE728E828EE28BC
:1011D000023079020318ED28EE28D9287918F12871
:1011E000F228FA28FF30FA05FF30FB057F30FC05B6
:1011F000FF30FD050310F90C7908F400F501F60144
:10120000F70118300310F40DF50DF60DF70DFF3E44
:10121000031D02297408FA047508FB047608FC040F
:101220007708FD0478080319162917291C29F31FCC
:101230001A291B291C29FD177D08F3007C08F200E0
:101240007B08F1007A08F0000800831203139F1452
:101250009F182B292C292829E901EA011E08D90009
:10126000DA015908E9005A08EA006908DA00D901E8
:101270005908E9005A08EA006908831603131E0496
:1012800083120313D9006A08DA005908E9005A08E2
:10129000EA006908F0006A08F100F201F301003089
:1012A0000A128A156B200A128A1573088312031317
:1012B000A7007208A6007108A5007008A4003E30BF
:1012C000A300A730A2001E30A100B830A0000A126F
:1012D0008A1157240A128A15831203132308C100A6
:1012E0002208C0002108BF002008BE00C230BD0097
:1012F0008630BC000030BB000030BA000A128A15EC
:1013000078250A128A15831203133D08D1003C0880
:10131000D0003B08CF003A08CE000A168A11DB2520
:101320000A128A15831203134F0883160313B3009E
:10133000831203134E0883160313B20083120313A0
:101340000C136908F0006A08F100F201F3010030A3
:101350000A128A156B200A128A1573088312031366
:10136000A7007208A6007108A5007008A4003E300E
:10137000A300A730A2001E30A100B830A0000A12BE
:101380008A1157240A128A15831203132308C100F5
:101390002208C0002108BF002008BE00C230BD00E6
:1013A0008630BC000030BB000030BA000A128A153B
:1013B00078250A128A15831203133D08DE003C08C3
:1013C000DD003B08DC003A08DB005E08C1005D0878
:1013D000C0005C08BF005B08BE004230BD0080302A
:1013E000BC000030BB000030BA000A128A15782514
:1013F0000A128A15831203133D08D1003C08D0005D
:101400003B08CF003A08CE000A168A11DB250A12E3
:101410008A15831203134F0883160313B300831234
:1014200003134E0883160313B2000800F000F01FE8
:101430001A2A1B2A302A8312031387150000000082
:101440000000831203138715000000000000000055
:101450008312031387110000000000000000442ADB
:10146000831203138715000000000000831203138A
:101470008711000000000000000083120313871191
:101480000000000000000000701F472A482A5D2A63
:10149000831203138715000000000000831203135A
:1014A000871500000000000000008312031387115D
:1014B0000000000000000000712A8312031387154A
:1014C00000000000000083120313871100000000D9
:1014D00000000000831203138711000000000000C9
:1014E0000000F01E742A752A8A2A831203138715B6
:1014F00000000000000083120313871500000000A5
:101500000000000083120313871100000000000098
:1015100000009E2A831203138715000000000000BC
:1015200083120313871100000000000000008312E3
:10153000031387110000000000000000701EA12AA4
:10154000A22AB72A831203138715000000000000A7
:1015500083120313871500000000000000008312AF
:10156000031387110000000000000000CB2A831243
:101570000313871500000000000083120313871176
:101580000000000000000000831203138711000018
:10159000000000000000F01DCE2ACF2AE42A8312AA
:1015A0000313871500000000000083120313871542
:1015B00000000000000000008312031387110000E8
:1015C000000000000000F82A8312031387150000B2
:1015D00000000000831203138711000000000000C8
:1015E00000008312031387110000000000000000B8
:1015F000701DFB2AFC2A112B831203138715000090
:101600000000000083120313871500000000000093
:101610000000831203138711000000000000000087
:10162000252B83120313871500000000000083128E
:101630000313871100000000000000008312031351
:1016400087110000000000000000F01C282B292B4F
:101650003E2B831203138715000000000000831245
:10166000031387150000000000000000831203131D
:1016700087110000000000000000522B83120313AA
:10168000871500000000000083120313871100007B
:101690000000000000008312031387110000000007
:1016A00000000000701C552B562B6B2B831203136C
:1016B0008715000000000000831203138715000047
:1016C00000000000000083120313871100000000D7
:1016D000000000007F2B8312031387150000000019
:1016E00000008312031387110000000000000000B7
:1016F000831203138711000000000000000008009F
:1017000000300A168A1137240A128A150A168A111D
:10171000B5210A128A1583120313621F902B912B95
:10172000232CE21E942B952BA92B3430B5003508C1
:10173000F70031300A168A1189230A128A1584307B
:10174000F7008030F8000A168A1175240A128A15EB
:10175000BC2B3430B5003508F70031300A168A1139
:1017600089230A128A158130F7008030F8000A16A2
:101770008A1175240A128A151F3083120313620519
:10178000E20000306305E300CA30A0000030A10091
:101790005D30B5003508A2006708A4006608A30004
:1017A0000A128A119C210A128A15C030831203136F
:1017B000A0000030A1005230B5003508A200650835
:1017C000A4006408A3000A128A119C210A128A1537
:1017D000B63083120313A0000030A1004E30B500D4
:1017E0003508A2006308A4006208A3000A128A1147
:1017F0009C210A128A15303083120313B500350874
:10180000F70031300A168A1189230A128A15B63078
:10181000F7000030F8000A168A1175240A128A159A
:10182000C030F7000030F8000A168A1175240A1239
:101830008A15CA30F7000030F8000A168A1175249C
:101840000A128A156D2C3F306205E20000306305F4
:10185000E300CA30A0000030A1005D30B5003508BB
:10186000A2006708A4006608A3000A128A119C213E
:101870000A128A15C03083120313A0000030A100A1
:101880005230B5003508A2006508A4006408A30022
:101890000A128A119C210A128A15B6308312031388
:1018A000A0000030A1004E30B5003508A20063084A
:1018B000A4006208A3000A128A119C210A128A1548
:1018C000303083120313B5003508F70031300A16A3
:1018D0008A1189230A128A15072C03300A128A15E5
:1018E0001A200A128A150A168A11B5210A128A15B7
:1018F000A43083120313A0000130A1004630B500CC
:101900003508A200831603132B0883120313A400C7
:10191000831603132A0883120313A3000A128A11E1
:101920009C210A128A159A3083120313A0000130F9
:10193000A1004A30B5003508A20083160313290818
:1019400083120313A40083160313280883120313BE
:10195000A3000A128A119C210A128A159030831260
:101960000313A0000130A1005D30B5003508A200CE
:1019700083160313270883120313A400831603138B
:10198000260883120313A3000A128A119C210A124B
:101990008A15303083120313B5003508F700323052
:1019A0000A168A1189230A128A15A430F700013019
:1019B000F8000A168A1175240A128A159A30F7005F
:1019C0000130F8000A168A1175240A128A1590301F
:1019D000F7000130F8000A168A1175240A128A15D8
:1019E000412D7130F7008030F8000A168A117524F5
:1019F0000A128A15682D6D30F7008030F8000A163B
:101A00008A1175240A128A15682D6530F700803016
:101A1000F8000A168A1175240A128A15682D613099
:101A2000F7008030F8000A168A1175240A128A1508
:101A3000682D7930F7008030F8000A168A11752475
:101A40000A128A15682D6930F7008030F8000A16EE
:101A50008A1175240A128A15682D7530F7008030B6
:101A6000F8000A168A1175240A128A15682D7D302D
:101A7000F7008030F8000A168A1175240A128A15B8
:101A8000682D831603132C08AE3E840083170008CC
:101A900083120313B500B6013608003A0319512D1D
:101AA000372D3508463A0319232D0B3A0319FB2C21
:101AB0001E3A0319F12C073A0319052D033A0319AD
:101AC0000F2D243A03192D2D073A0319192D372DFF
:101AD000023083120313B7000430B600B930B500EA
:101AE000B50B702DB60B702DB70B702D772D080030
:101AF000831203133D088039C2004208CA003D0822
:101B0000C2004207C3004308CC00BC1F882D892DAA
:101B10008A2D4C144C0803198E2D8F2D9F2D4C0AA5
:101B2000031D932D942D9C2D0030BD000030BC0072
:101B30000030BB000030BA00BC17BD01A72D00303B
:101B4000BD000030BC000030BB000030BA004108CE
:101B50008039C2004208CB004B084A060319B12D58
:101B6000B22DB32D4A174108C2004207C3004308F3
:101B7000CB00C01FBC2DBD2DBE2D4B144B0803192F
:101B8000C22DC32DD32D4B0A031DC72DC82DD02D1B
:101B90000030C1000030C0000030BF000030BE0087
:101BA000C017C101DB2D0030C1000030C000003083
:101BB000BF000030BE004C084B020318E02DE12DA1
:101BC000252E4A1FE42DE52DE92D8030C200420864
:101BD000CA064C08C2004208CD004B08C2004208A9
:101BE000CC004D08C2004208CB003A08C2004208AF
:101BF000CD003E08C2004208BA004D08C2004208AB
:101C0000BE003B08C2004208CD003F08C2004208A7
:101C1000BB004D08C2004208BF003C08C200420899
:101C2000CD004008C2004208BC004D08C200420876
:101C3000C0003D08C2004208CD004108C200420871
:101C4000BD004D08C2004208C100CD014B08C200D2
:101C5000C3014308C5004C084202C400031CC5036D
:101C60004508803AFF0080307F02031D392E1A306C
:101C70004402031C3C2E3D2E7A2E831203133D0892
:101C80003C043B043A04031D462E482E0130492EE5
:101C90000030C2004208CD000030BD000030BC0062
:101CA0000030BB000030BA004B08C2004208CC0034
:101CB000822E4D1C5C2E5D2E662E4D08C200031038
:101CC000420C0138C3004308CD00682E0310CD0C30
:101CD0003A1C6B2E6C2E6D2ECD170130C2003D0DBF
:101CE000BD0CBC0CBB0CBA0CC20B6F2E0130C20079
:101CF0004208CC07831203134B084C02031C812EAD
:101D0000822E592E4A1B852E862ED12E4C08031D5D
:101D10008A2E8B2E942E0030BD000030BC00003087
:101D2000BB000030BA00FF2F3E08BA073F0803117E
:101D30000318013E03199D2EBB0740080311031829
:101D4000013E0319A42EBC07410803110318013EEC
:101D50000319AB2EBD073D1CAE2EAF2E852F4D1C9B
:101D6000B22EB32EBC2E4D08C2000310420C013817
:101D7000C3004308CD00BE2E0310CD0C3A1CC12E6B
:101D8000C22EC32ECD170130C2003D0DBD0CBC0CC0
:101D9000BB0CBA0CC20BC52E0130C2004208CC07E6
:101DA000852F3D08803AFF004108803A7F02031DDD
:101DB000E32E40083C02031DE32E3F083B02031DB7
:101DC000E32E3E083A020318E62EE72E3F2FFF309F
:101DD000C200FF30C300FF30C400FF30C5003E0822
:101DE000C6003F08C7004008C8004108C9003A08BB
:101DF000C6023B08031C3B0FFE2EFF2EC7023C0809
:101E0000031C3C0F042F052FC8023D08031C3D0F87
:101E10000A2F0B2FC9024608C20747080318470FAD
:101E2000122F132FC30748080318480F182F192F14
:101E3000C40749080318490AC5074508BD004408F6
:101E4000BC004308BB004208BA008030C200420810
:101E5000CA06CD09CD0A4D08031D2F2F302F4D2F57
:101E60000130BA07003003180130BB0700300318F7
:101E70000130BC07003003180130BD074D2F3E086C
:101E8000BA023F08031C3F0FBB024008031C400F6F
:101E9000BC024108031C410FBD023D083C043B0449
:101EA0003A04031D542F552F812F4D08031D592F20
:101EB0005A2F812F0030BD000030BC000030BB0025
:101EC0000030BA00FF2F0130C2000310BA0DBB0D65
:101ED000BC0DBD0DC20B652FCD1F6F2F702F712F45
:101EE0003A144D1C742F752F782F0314CD0D7A2FB3
:101EF0000310CD0D4C0803197E2F7F2F812F013049
:101F0000CC02BC1F842F852F632FCB01CD1F892FBF
:101F10008A2F982F4D087F3903198F2F902F932FD9
:101F2000CB01CB0A982F3A1C962F972F982F902FE2
:101F30004B0803199C2F9D2FD12F0130BA07003079
:101F400003180130BB07003003180130BC07003014
:101F500003180130BD073D1CAE2FAF2FD12F3A081B
:101F6000C2003B08C3003C08C4003D08C500013066
:101F7000C600450DC50CC40CC30CC20CC60BB92F52
:101F80004508BD004408BC004308BB004208BA0035
:101F90004C0A0319CC2FCD2FD12F0130C20042089B
:101FA000CC074C0A0319D52FD62FDB2F4C08031D65
:101FB000DA2FDB2FE92F0030BD000030BC000030ED
:101FC000BB000030BA004C08031DE72FE82FE92FB3
:101FD000CA014C1CEC2FED2FEF2FBC17F32F7F30D5
:101FE000C2004208BC054C08C2000310420CC300EA
:101FF0004308BD00CA1FFD2FFE2FFF2FBD1708008D
:10200000FF1B0A2883137F1883170008840A03190B
:10201000FF0A080010308A000408840A820700348E
:10202000013400340A34003464340034E8340334B6
:1020300010342734013400341034003400340134B7
:1020400000341034303431343234333434343534B1
:102050003634373438343934613462346334643478
:10206000653466340034483465346C346C346F3411
:102070002034543468346534723465340034543454
:1020800065346D3470343A342534333464342A344E
:1020900043340034543465346D3470343A34253468
:1020A000333464342A3446340034433461346C3479
:1020B0002034253478342D340034543469346D346C
:1020C0003A34253478343A34003428346E34753454
:1020D0006C346C34293400342534783420340034A2
:1020E0005734653464340034543475346534003402
:1020F00046347234693400344D346F346E340034F5
:10210000533475346E3400345334613474340034D1
:10211000543468347534003449346E3476340034C1
:1021200041344D34003450344D340034253473344C
:02213000003479
:10231A000234003483160313060808001434053403
:10232A000634083401300A168A1157260A168A1109
:10233A00080053344D3454345734743446347334A7
:10234A00831203138C1DAA29AB29A5298C11080015
:10235A0064008001840A0406031900340406AE29C5
:10236A008316031311151119BB29BC29B82914089E
:10237A0008008316031391121116111AC529C629CA
:10238A00C22908008316031391161116111ACE29B1
:10239A00CF29CB29080001300A168A118A220A1687
:1023AA008A111A30F700F70BD829000008007E08B6
:1023BA008A007F0882000A168A11DC210A168A110D
:1023CA008000840A04087D0603190034FF0A0319F1
:1023DA00FE0AE029F30071080A128A1516220A1663
:1023EA008A1173080A128A1516220A168A117208A5
:1023FA000A128A1516220A168A110800F0007008B5
:10240A008312031393000A168A11A5210A168A1148
:10241A0083160313111F122A132A152A0130162AAA
:10242A0002300800831603130614861450309400F1
:10243A002830831203139400831603139101133077
:10244A0093008C15831203138C110800F2004E308E
:10245A000A168A1158220A168A117208831203135D
:10246A006E040A168A1103220A168A110A168A119A
:10247A00B5210A168A110800043083120313920048
:10248A0065308316031392000614861586179D1469
:10249A001D159D153F308312031397051708F03950
:1024AA000C3897000800F100831603131114111851
:1024BA005F2A602A5C2A831203138C118316031382
:1024CA009419682A692A6A2A702A71080A168A11CE
:1024DA0003220A168A110800F100831603139114C5
:1024EA009118782A792A752A831203138C11831674
:1024FA0003139419812A822A832A892A71080A16BF
:10250A008A1103220A168A110800F600831203139D
:10251A00E8017608F0390A128A1500200A168A118B
:10252A007608F50003300310F50DFF3E031D982AC7
:10253A000310750DF0390A128A1500200A168A113D
:10254A000800F60083120313E801E80A7608F03956
:10255A000A128A1500200A168A117608F500033035
:10256A000310F50DFF3E031DB52A0310750DF03952
:10257A000A128A1500200A168A110800F401F501C8
:10258A00701CC82AC92ACF2A7208F4070318F50A48
:10259A007308F50701300310F20DF30DFF3E031D1A
:1025AA00D02A01300310F10CF00CFF3E031DD72A8C
:1025BA0070087104031DE22AE32AC52A7508F1008E
:1025CA007408F0000800F100831603139115141C17
:1025DA00EF2AF02AEC2A831203131308F00070087A
:1025EA00F2007108031DFA2AFB2A012B0A168A1126
:1025FA00BE210A168A11062B0A168A11C7210A1643
:10260A008A110A168A11A5210A168A117208080067
:10261A00F800F401F5017008F200F3017208F600FF
:10262A007308F700781C1A2B1B2B212B7608F4074A
:10263A000318F50A7708F50701300310F60DF70DB0
:10264A00FF3E031D222B0310F80C7808031D2E2BC6
:10265A002F2B172B7508F1007408F0000800F600FC
:10266A0073087404F5007508F300D0300A168A114D
:10267A0058220A168A1100300A168A1103220A16EB
:10268A008A1176080A168A1103220A168A11720812
:10269A000A168A1103220A168A1173080A168A115F
:1026AA0003220A168A110A168A11B5210A168A11F4
:1026BA000800F500D0300A168A1158220A168A1123
:1026CA0003300A168A1103220A168A1175080A1695
:1026DA008A1103220A168A1172080A168A1103221B
:1026EA000A168A1173080A168A1103220A168A110F
:1026FA0074080A168A1103220A168A110A168A11FE
:10270A00B5210A168A110800FA00AB2B7708BF3EDA
:10271A000A168A118A220A168A11BE2B7708933E54
:10272A000A168A118A220A168A11BE2B7708D33E04
:10273A000A168A118A220A168A11BE2B77087F3E48
:10274A000A168A118A220A168A11BE2B7A08F800FA
:10275A00F9017908003A0319B32BA32B7808023A36
:10276A0003198B2B013A0319932B073A03199B2B55
:10277A00A32B0800780879040319C42BC52BF42B62
:10278A00FD01FD0AD32B01300310F80DF90DFF3EB0
:10279A00031DC92B0130FC007C08FD07F91FD62B4D
:1027AA00D72BC82B79087B02031DDD2B78087A0208
:1027BA00031CE02BE12BE72B7808FA027908031CAB
:1027CA00FB03FB0201300310F90CF80CFF3E031D5A
:1027DA00E82B0130FD02031DF32BF42BD72B7B08CA
:1027EA00F9007A08F8000800C030831203139F0426
:1027FA001F08C33920389F00831603139F121F1224
:10280A009F17831203130C13831603130C178312D7
:10281A0003131F149F149F18132C142C102C8316A7
:10282A000313A001A101831203131E08F000F10192
:10283A00700883160313A0007108A1002008F10094
:10284A00F0017008A0007108A10020081E04F00021
:10285A002108F1007008A0007108A1008312031377
:10286A000C130800F500D0300A168A1158220A16ED
:10287A008A1175080A168A1103220A168A11D1309A
:10288A000A168A1171220A168A1100300A168A114A
:10289A00E8220A168A11F300F4017308831203135B
:1028AA00E6007408E70000300A168A11E8220A16C0
:1028BA008A11F300F401730883120313E400740805
:1028CA00E50001300A168A11E8220A168A11F30075
:1028DA00F401730883120313E2007408E30008008A
:1028EA00FC01FD019A2C7C087707FA007808F900A8
:1028FA000318F90AFC1F822CF9037908FB007B08EC
:10290A0083120313FF007A0884000A168A11002032
:10291A000A168A110A168A11A6220A168A11013083
:10292A00FC070318FD0A0030FD077C087707FA0048
:10293A007808F9000318F90AFC1FA42CF90379088E
:10294A00FB007B0883120313FF007A0884000A162F
:10295A008A1100200A168A11003A031DB52CB62CDA
:10296A00782C0800F501F601700871040319BE2CD1
:10297A00BF2CF62CF701F70ACD2C01300310F00D0D
:10298A00F10DFF3E031DC32C0130F4007408F70754
:10299A00F11FD02CD12CC22C01300310F50DF60DED
:1029AA00FF3E031DD22C71087302031DDE2C700832
:1029BA007202031CE12CE22CE92C7008F202710865
:1029CA00031CF303F302751401300310F10CF00C2D
:1029DA00FF3E031DEA2C0130F702031DF52CF62CED
:1029EA00D12C7608F1007508F000080038308312FF
:1029FA000313A0000030A1003030B5003508A20052
:102A0A0083160313350883120313A40083160313D2
:102A1A00340883120313A3000A128A119C210A168E
:102A2A008A11033083120313B6009730B500B50B31
:102A3A001C2DB60B1C2D3830F7000030F8000A1692
:102A4A008A1175240A168A11303083120313B500CD
:102A5A003508F70032300A168A1189230A168A11B4
:102A6A00483083120313A0000030A1003B30B500A8
:102A7A003508A20083160313330883120313A40034
:102A8A0083160313320883120313A3000A128A114E
:102A9A009C210A168A114830F7000030F8000A16FD
:102AAA008A1175240A168A11033083120313B70098
:102ABA000830B6007630B500B50B612DB60B612D26
:102ACA00B70B612D0000080083120313060D060DD3
:102ADA000139F000F101700883160313A40071088C
:102AEA00A500831203136B089500060D060D013924
:102AFA00F000F1018316031325087106031D872DC3
:102B0A002408700603198A2D8B2DCE2D83120313E8
:102B1A00861F902D912DCE2D861B942D962D01303A
:102B2A00972D0030F00006189B2D9D2D01309E2D0B
:102B3A00003070060319A22DA32DB02D6B080319BE
:102B4A00A72DA82DB02D6B08F63EF0007008EB00FB
:102B5A006B089500CE2D861BB32DB52D0130B62DF1
:102B6A000030F0000618BA2DBC2D0130BD2D003002
:102B7A007006031DC12DC22DCE2D64306B020318C1
:102B8A00C72DC82DCE2D6B080A3EF0007008EB0049
:102B9A00AD2D8312060D060D0139F000F101700802
:102BAA0083160313A4007108A500080003108312FA
:102BBA000313500D510DD2005208D8005808031DB6
:102BCA00E72DE82DF12D0030D1000030D000003083
:102BDA00CF000030CE00562E4E08D2004F08D30048
:102BEA005008D4005108D5001F300310D50CD40C5E
:102BFA00D30CD20CFF3E031DFA2D5208D6005608FC
:102C0A00D700D017FF30CE05FF30CF05FF30D005F3
:102C1A000030D1059630D802D81F142E152E2F2E2B
:102C2A005808803A973E03181B2E1C2E1D2EE82D9D
:102C3A0001300310D10CD00CCF0CCE0CFF3E031D7B
:102C4A001E2E0130D2005208D807031D2D2E2E2E1B
:102C5A001D2E462E20305802031C342E352E412EAE
:102C6A00E82D0130D2000310CE0DCF0DD00DD10DBD
:102C7A00D20B382E0130D8025808031D452E462E95
:102C8A00362E570803194A2E4B2E562ECE09CF0937
:102C9A00D009D109CE0A0319CF0A0319D00A031998
:102CAA00D10A0800F6007608F4007408F1007608E4
:102CBA00F5007508F20076080A168A11EF210A163D
:102CCA008A117608F4007408F1007608F500750890
:102CDA00F20076080A168A11EF210A168A11760876
:102CEA00F4007408F1007608F5007508F200760819
:102CFA000A168A11EF210A168A11F101F2017608E1
:102D0A000A168A11EF210A168A117608F400740845
:102D1A00F100F20100300A168A11EF210A168A110F
:102D2A00F1017608F4007408F20000300A168A11DC
:102D3A00EF210A168A117608F4007408F100F201EC
:102D4A0076080A168A11EF210A168A11F101760805
:102D5A00F4007408F20076080A168A11EF210A169E
:102D6A008A117608F4007408F1007608F5007508EF
:102D7A00F20000300A168A11EF210A168A11760823
:102D8A00F4007408F1007608F5007508F200760878
:102D9A000A168A11EF210A168A11F101F20100308E
:102DAA000A168A11EF210A168A11080000300A163B
:102DBA008A112B220A168A114E30F800EB30F700DE
:102DCA00F70BE52EF80BE52E03300A168A118A2234
:102DDA000A168A110D30F800FB30F700F70BF32EB4
:102DEA00F80BF32EF82E03300A168A118A220A16D5
:102DFA008A110D30F800FB30F700F70B022FF80BA1
:102E0A00022F072F03300A168A118A220A168A11FC
:102E1A000D30F800FB30F700F70B112FF80B112FCC
:102E2A00162F02300A168A118A220A168A110D30C2
:102E3A00F800FB30F700F70B202FF80B202F252F77
:102E4A0028300A168A118A220A168A118230F80054
:102E5A00DD30F700F70B2F2FF80B2F2F342F0C3004
:102E6A000A168A118A220A168A118230F800DD307F
:102E7A00F700F70B3E2FF80B3E2F432F01300A16AF
:102E8A008A118A220A168A118230F800DD30F70088
:102E9A00F70B4D2FF80B4D2F522F06300A168A11B9
:102EAA008A220A168A118230F800DD30F700F70B01
:102EBA005C2FF80B5C2F612F0800831203139F14F9
:102ECA009F18682F692F652FE901EA011E08D900AA
:102EDA00DA015908E9005A08EA006908DA00D90152
:102EEA005908E9005A08EA006908831603131E0400
:102EFA0083120313D9006A08DA005908E9005A084C
:102F0A00EA000C136908F0006A08F100F201F30103
:102F1A0000300A128A156B200A168A117308831266
:102F2A000313A7007208A6007108A5007008A40080
:102F3A003E30A3003430A2000030A1000030A000CF
:102F4A000A128A1157240A168A11831203132308B4
:102F5A00C1002208C0002108BF002008BE00C230FC
:102F6A00BD005C30BC000030BB000030BA000A1261
:102F7A008A1578250A168A11831203133D08DE0082
:102F8A003C08DD003B08DC003A08DB005E08C100B3
:102F9A005D08C0005C08BF005B08BE004230BD008F
:102FAA000C30BC000030BB000030BA000A128A158F
:102FBA0078250A168A11831203133D08D1003C08AA
:102FCA00D0003B08CF003A08CE000A168A11DB254A
:102FDA000A168A11831203134F0883160313B500C6
:102FEA00831203134E0883160313B4000130B00092
:062FFA000030B1000800E8
:08400000FF3FFF3FFF3FFF3FC0
:04400E00D22FFF3F6F
:00000001FF
